:020000040800F2
:1000000000400020594F0008A94F0008A94F0008E0
:10001000A94F0008A94F0008A94F000800000000E0
:10002000000000000000000000000000A94F0008D0
:10003000A94F000800000000A94F0008A94F0008C0
:10004000A94F0008A94F0008A94F0008A94F0008B0
:10005000A94F0008A94F0008A94F0008A94F0008A0
:10006000A94F0008A94F0008A94F0008A94F000890
:10007000A94F0008A94F0008A94F0008A94F000880
:10008000A94F0008A94F0008A94F00080000000070
:10009000000000000000000000000000A94F000860
:1000A000A94F0008A94F0008A94F0008A94F000850
:1000B000A94F00080000000000000000A94F000840
:1000C000A94F0008A94F0008A94F00080000000030
:1000D000A94F0008693F00085D3F0008513F000834
:1000E000A94F0008A94F0008000000000000000010
:1000F0000000000000000000000000000000000000
:10010000000000000000000000000000A94F0008EF
:100110000000000000000000A94F000800000000DF
:1001200000000000000000000000000000000000CF
:1001300000000000000000000000000000000000BF
:10014000A94F0008A94F00080000000000000000AF
:10015000000000000000000000000000000000009F
:10016000A94F0008A94F000800000000000000008F
:10017000000000000000000000000000000000007F
:0801800000000000A94F000877
:1001900010B5054C237833B9044B13B10448AFF3C1
:1001A00000800123237010BDE0010020000000004A
:1001B000EC74000808B5034B1BB103490348AFF3C7
:1001C000008008BD00000000E4010020EC7400087D
:1001D000034613F8012B002AFBD1181A0138704787
:1001E00001F0FF01102A2BDB10F0070F08D010F8E8
:1001F000013B013A8B422DD010F0070F42B3F6D1EC
:10020000F0B441EA012141EA014122F007047FF004
:1002100000070023F0E80256083C85EA010586EA5B
:10022000010685FA47F5A3FA87F586FA47F6A5FA97
:1002300087F68EB9EED1F0BC01F0FF0102F00702A3
:1002400032B110F8013B013A83EA010313B1F8D14E
:100250000020704701387047002D06BF354603382F
:10026000073815F0010F07D1013015F4807F02BF68
:10027000013015F4C03F0130F0BC0138704700BFB9
:1002800081F0004102E000BF83F0004330B54FEA47
:1002900041044FEA430594EA050F08BF90EA020FB4
:1002A0001FBF54EA000C55EA020C7FEA645C7FEA47
:1002B000655C00F0E2804FEA5454D4EB5555B8BF6A
:1002C0006D420CDD2C4480EA020281EA030382EADB
:1002D000000083EA010180EA020281EA0303362D6D
:1002E00088BF30BD11F0004F4FEA01314FF4801C40
:1002F0004CEA113102D0404261EB410113F0004F52
:100300004FEA03334CEA133302D0524263EB430308
:1003100094EA050F00F0A780A4F10104D5F1200EA6
:100320000DDB02FA0EFC22FA05F2801841F1000101
:1003300003FA0EF2801843FA05F359410EE0A5F1D5
:1003400020050EF1200E012A03FA0EFC28BF4CF006
:10035000020C43FA05F3C01851EBE37101F00045BC
:1003600007D54FF0000EDCF1000C7EEB00006EEBC9
:100370000101B1F5801F1BD3B1F5001F0CD3490853
:100380005FEA30004FEA3C0C04F101044FEA4452AA
:1003900012F5800F80F09A80BCF1004F08BF5FEA31
:1003A000500C50F1000041EB045141EA050130BD11
:1003B0005FEA4C0C404141EB0101013C28BFB1F523
:1003C000801FE9D291F0000F04BF01460020B1FA6E
:1003D00081F308BF2033A3F10B03B3F120020CDA41
:1003E0000C3208DD02F1140CC2F10C0201FA0CF01F
:1003F00021FA02F10CE002F11402D8BFC2F1200C84
:1004000001FA02F120FA0CFCDCBF41EA0C01904039
:10041000E41AA2BF01EB0451294330BD6FEA040482
:100420001F3C1CDA0C340EDC04F11404C4F120026D
:1004300020FA04F001FA02F340EA030021FA04F37F
:1004400045EA030130BDC4F10C04C4F1200220FAD6
:1004500002F001FA04F340EA0300294630BD21FA14
:1004600004F0294630BD94F0000F83F4801306BFDA
:1004700081F480110134013D4EE77FEA645C18BFCE
:100480007FEA655C29D094EA050F08BF90EA020F65
:1004900005D054EA000C04BF1946104630BD91EA5D
:1004A000030F1EBF0021002030BD5FEA545C05D160
:1004B0004000494128BF41F0004130BD14F580049F
:1004C0003CBF01F5801130BD01F0004545F0FE4113
:1004D00041F470014FF0000030BD7FEA645C1ABF48
:1004E000194610467FEA655C1CBF0B46024650EA7F
:1004F000013406BF52EA033591EA030F41F40021AB
:1005000030BD00BF90F0000F04BF0021704730B530
:100510004FF4806404F132044FF000054FF0000105
:1005200050E700BF90F0000F04BF0021704730B5C6
:100530004FF4806404F1320410F0004548BF40429B
:100540004FF000013EE700BF42004FEAE2014FEAF0
:1005500031014FEA02701FBF12F07F4393F07F4FCB
:1005600081F06051704732F07F4208BF704793F0CE
:100570007F4F04BF41F40021704730B54FF46074E1
:1005800001F0004521F000411CE700BF50EA0102E4
:1005900008BF704730B54FF000050AE050EA01028D
:1005A00008BF704730B511F0004502D5404261EBFD
:1005B00041014FF4806404F132045FEA915C3FF43E
:1005C000D8AE4FF003025FEADC0C18BF03325FEADB
:1005D000DC0C18BF033202EBDC02C2F1200300FA8C
:1005E00003FC20FA02F001FA03FE40EA0E0021FAB1
:1005F00002F11444BDE600BF70B54FF0FF0C4CF49F
:10060000E06C1CEA11541DBF1CEA135594EA0C0F50
:1006100095EA0C0F00F0DEF82C4481EA030621EA8B
:100620004C5123EA4C5350EA013518BF52EA0335C6
:1006300041F4801143F4801338D0A0FB02CE4FF078
:100640000005E1FB02E506F00042E0FB03E54FF0A8
:100650000006E1FB03569CF0000F18BF4EF0010EA0
:10066000A4F1FF04B6F5007F64F5407404D25FEA9C
:100670004E0E6D4146EB060642EAC62141EA55514F
:100680004FEAC52040EA5E504FEACE2EB4F1FD0C91
:1006900088BFBCF5E06F1ED8BEF1004F08BF5FEA0F
:1006A000500E50F1000041EB045170BD06F00046C1
:1006B00046EA010140EA020081EA0301B4EB5C046E
:1006C000C2BFD4EB0C0541EA045170BD41F4801166
:1006D0004FF0000E013C00F3AB8014F1360FDEBF8B
:1006E000002001F0004170BDC4F10004203C35DA67
:1006F0000C341BDC04F11404C4F1200500FA05F3EA
:1007000020FA04F001FA05F240EA020001F000428A
:1007100021F0004110EBD37021FA04F642EB060100
:100720005EEA430E08BF20EAD37070BDC4F10C042A
:10073000C4F1200500FA04F320FA05F001FA04F2EE
:1007400040EA020001F0004110EBD37041F10001DA
:100750005EEA430E08BF20EAD37070BDC4F12005E5
:1007600000FA05F24EEA020E20FA04F301FA05F24D
:1007700043EA020321FA04F001F0004121FA04F2F5
:1007800020EA020000EBD3705EEA430E08BF20EAC5
:10079000D37070BD94F0000F0FD101F000464000FF
:1007A00041EB010111F4801F08BF013CF7D041EA81
:1007B000060195F0000F18BF704703F00046520085
:1007C00043EB030313F4801F08BF013DF7D043EA56
:1007D0000603704794EA0C0F0CEA135518BF95EA0C
:1007E0000C0F0CD050EA410618BF52EA4306D1D193
:1007F00081EA030101F000414FF0000070BD50EAB2
:10080000410606BF1046194652EA430619D094EA3B
:100810000C0F02D150EA013613D195EA0C0F05D125
:1008200052EA03361CBF104619460AD181EA030179
:1008300001F0004141F0FE4141F470014FF0000031
:1008400070BD41F0FE4141F4780170BD70B54FF0CC
:10085000FF0C4CF4E06C1CEA11541DBF1CEA13554C
:1008600094EA0C0F95EA0C0F00F0A7F8A4EB05042E
:1008700081EA030E52EA03354FEA013100F0888025
:100880004FEA03334FF0805545EA131343EA1263EE
:100890004FEA022245EA111545EA10654FEA0026A3
:1008A0000EF000419D4208BF964244F1FD0404F55C
:1008B000407402D25B084FEA3202B61A65EB0305B8
:1008C0005B084FEA32024FF480104FF4002CB6EB75
:1008D000020E75EB030E22BFB61A754640EA0C00F5
:1008E0005B084FEA3202B6EB020E75EB030E22BF35
:1008F000B61A754640EA5C005B084FEA3202B6EB76
:10090000020E75EB030E22BFB61A754640EA9C0034
:100910005B084FEA3202B6EB020E75EB030E22BF04
:10092000B61A754640EADC0055EA060E18D04FEAC2
:10093000051545EA16754FEA06164FEAC30343EA62
:1009400052734FEAC2025FEA1C1CC0D111F4801F2F
:100950000BD141EA00014FF000004FF0004CB6E728
:1009600011F4801F04BF01430020B4F1FD0C88BFC7
:10097000BCF5E06F3FF6AFAEB5EB030C04BFB6EBD2
:10098000020C5FEA500C50F1000041EB045170BDC5
:100990000EF0004E4EEA113114EB5C04C2BFD4EBF2
:1009A0000C0541EA045170BD41F480114FF0000E76
:1009B000013C90E645EA060E8DE60CEA135594EAF2
:1009C0000C0F08BF95EA0C0F3FF43BAF94EA0C0FF5
:1009D0000AD150EA01347FF434AF95EA0C0F7FF46A
:1009E00025AF104619462CE795EA0C0F06D152EABE
:1009F00003353FF4FDAE1046194622E750EA4106A2
:100A000018BF52EA43067FF4C5AE50EA41047FF4B2
:100A10000DAF52EA43057FF4EBAE12E74FF0FF3C17
:100A200006E000BF4FF0010C02E000BF4FF0010CE8
:100A30004DF804CD4FEA410C7FEA6C5C4FEA430C61
:100A400018BF7FEA6C5C1BD001B050EA410C0CBFB0
:100A500052EA430C91EA030F02BF90EA020F002012
:100A6000704710F1000F91EA030F58BF994208BF79
:100A700090422CBFD8176FEAE37040F00100704736
:100A80004FEA410C7FEA6C5C02D150EA013C07D18D
:100A90004FEA430C7FEA6C5CD6D152EA033CD3D0D8
:100AA0005DF8040B704700BF8446104662468C46D2
:100AB0001946634600E000BF01B5FFF7B7FF002805
:100AC00048BF10F1000F01BD4DF808EDFFF7F4FF2E
:100AD0000CBF012000205DF808FB00BF4DF808EDB9
:100AE000FFF7EAFF34BF012000205DF808FB00BFDC
:100AF0004DF808EDFFF7E0FF94BF012000205DF8FE
:100B000008FB00BF4DF808EDFFF7CEFF94BF0120B2
:100B100000205DF808FB00BF4DF808EDFFF7C4FFAB
:100B200034BF012000205DF808FB00BF4FEA410CF4
:100B30007FEA6C5C02D150EA013C0AD14FEA430CD7
:100B40007FEA6C5C02D152EA033C02D14FF0000014
:100B500070474FF0010070474FEA410212F5001252
:100B600015D211D56FF47873B3EB625212D94FEAF4
:100B7000C12343F0004343EA505311F0004F23FADE
:100B800002F018BF404270474FF00000704750EA33
:100B9000013005D111F0004008BF6FF000407047F0
:100BA0004FF00000704700BF80F0004002E000BF3F
:100BB00081F0004142001FBF5FEA410392EA030F48
:100BC0007FEA226C7FEA236C6AD04FEA1262D2EB92
:100BD0001363C1BFD218414048404140B8BF5B4297
:100BE000192B88BF704710F0004F40F4000020F030
:100BF0007F4018BF404211F0004F41F4000121F046
:100C00007F4118BF494292EA030F3FD0A2F101028F
:100C100041FA03FC10EB0C00C3F1200301FA03F1CD
:100C200000F0004302D5494260EB4000B0F5000FF0
:100C300013D3B0F1807F06D340084FEA310102F1AF
:100C40000102FE2A51D2B1F1004F40EBC25008BF61
:100C500020F0010040EA03007047490040EB00002B
:100C6000013A28BFB0F5000FEDD2B0FA80FCACF12C
:100C7000080CB2EB0C0200FA0CF0AABF00EBC25059
:100C800052421843BCBFD0401843704792F0000F47
:100C900081F4000106BF80F400000132013BB5E79A
:100CA0004FEA41037FEA226C18BF7FEA236C21D010
:100CB00092EA030F04D092F0000F08BF0846704775
:100CC00090EA010F1CBF0020704712F07F4F04D143
:100CD000400028BF40F00040704712F100723CBF56
:100CE00000F50000704700F0004343F0FE4040F480
:100CF000000070477FEA226216BF08467FEA23633E
:100D00000146420206BF5FEA412390EA010F40F428
:100D1000800070474FF0000304E000BF10F0004374
:100D200048BF40425FEA000C08BF704743F096435B
:100D300001464FF000001CE050EA010208BF704776
:100D40004FF000030AE000BF50EA010208BF7047FD
:100D500011F0004302D5404261EB41015FEA010C12
:100D600002BF84460146002043F0B64308BFA3F10A
:100D70008053A3F50003BCFA8CF2083AA3EBC253EC
:100D800010DB01FA02FC634400FA02FCC2F120020B
:100D9000BCF1004F20FA02F243EB020008BF20F042
:100DA0000100704702F1200201FA02FCC2F12002A8
:100DB00050EA4C0021FA02F243EB020008BF20EA9D
:100DC000DC7070477BB972B90029BEBF00204FF0BC
:100DD000004106E008BF00281CBF6FF000414FF043
:100DE000FF3000F0A1B9ADF1080C6DE904CE002987
:100DF00009DB002B1ADB00F035F8DDF804E0DDE953
:100E0000022304B07047404261EB4101002B1BDB21
:100E100000F028F8DDF804E0DDE9022304B04042E8
:100E200061EB4101524263EB43037047524263EB73
:100E3000430300F017F8DDF804E0DDE9022304B015
:100E4000404261EB41017047524263EB430300F0C3
:100E500009F8DDF804E0DDE9022304B0524263EB57
:100E6000430370472DE9F047089D04468C46002B4C
:100E700040F083808A42174647D9B2FA82F242B1E3
:100E8000C2F1200024FA00F09140974040EA010CA2
:100E900094404FEA1748230CBCFBF8F61FFA87FE74
:100EA00008FB16C143EA014306FB0EF1994209D93A
:100EB000FB1806F1FF3080F01981994240F216814B
:100EC000023E3B445B1AA4B2B3FBF8F008FB1033BC
:100ED00044EA034400FB0EFEA64509D93C1900F183
:100EE000FF3380F00581A64540F2028102383C4480
:100EF00040EA0640A4EB0E0400261DB1D4400023B6
:100F0000C5E900433146BDE8F08702B9FFDEB2FA19
:100F100082F2002A50D1CB1B4FEA174E1FFA87F8F6
:100F20000126B3FBFEFC210C0EFB1C3341EA0341FE
:100F300008FB0CF38B4207D979180CF1FF3002D271
:100F40008B4200F2E9808446C91AA3B2B1FBFEF0DD
:100F50000EFB101143EA014408FB00F8A04507D935
:100F60003C1900F1FF3302D2A04500F2D9801846A7
:100F7000A4EB080440EA0C40BFE78B4209D9002DDE
:100F800000F0B1800026C5E9000130463146BDE8D9
:100F9000F087B3FA83F6002E4AD18B4202D3824205
:100FA00000F2B880841A61EB030101208C46002D09
:100FB000A8D0C5E9004CA5E7C2F1200320FA03F64A
:100FC000974001FA02F04FEA174ED9403043030C24
:100FD000B1FBFEF61FFA87F80EFB161143EA014338
:100FE00006FB08F1994204FA02F409D9FB1806F14C
:100FF000FF3C80F08D80994240F28A80023E3B4463
:101000005B1A81B2B3FBFEF00EFB103341EA0341E1
:1010100000FB08F38B4207D9791800F1FF3C73D22B
:101020008B4271D902383944CB1A40EA064678E738
:10103000C6F1200C03FA06F422FA0CF31C4320FA42
:101040000CF701FA06F34FEA144E21FA0CF11F4394
:101050003B0CB1FBFEF91FFA84F80EFB191143EAB1
:10106000014109FB08FA8A4502FA06F200FA06F382
:1010700008D9611809F1FF3048D28A4546D9A9F14B
:1010800002092144A1EB0A01BFB2B1FBFEF00EFB45
:10109000101147EA014700FB08F8B84507D9E719DE
:1010A00000F1FF312ED2B8452CD90238274440EA4E
:1010B0000940A7EB0807A0FB02894F45C6464946F1
:1010C0001AD317D05DB1B3EB0E0267EB010707FA35
:1010D0000CFCF2404CEA0202F740C5E9002700266A
:1010E0003146BDE8F0872E4628460BE70646E9E67E
:1010F0001846FDE64345E5D2B8EB020E69EB040164
:101100000138DFE70846D2E760468DE78146B9E758
:10111000664675E730464AE7ACF1020C394413E7FE
:1011200002383C4424E700BF704700BF30B4046875
:101130001D4D03E02A68521A0A2A27D8A36913F022
:101140002003F7D010222023E261E361A3699A070C
:1011500044BF0023A362A369DB0712D56368134A67
:1011600013406360436C0022202143F00403436476
:1011700080F8402080F8411080F8422030BC0120E7
:101180007047A36943F00103A361E7E7426C80F86D
:10119000403042F020022021426480F8411080F863
:1011A000423030BC01207047DC13002000E800FE14
:1011B00070B5124E04460D4609E09B69DB0602D568
:1011C000FFF7B4FFC0B933685B1B0A2B07D823684D
:1011D0009A69920629462046EFD5002070BD636CBF
:1011E000202100220B43636484F8402084F84110DE
:1011F00084F84220012070BD012070BDDC13002066
:1012000062B6704703681847012A05D0022A01D147
:101210000B6803600020704701600020704700BF2A
:1012200072B670470368104810B404221C6A01F0BB
:101230001F0102FA01F124EA01041C621A6A114337
:1012400019625A6C42F400425A649A6810400628A7
:1012500006D0B0F5803F03D01A6842F001021A6050
:1012600000205DF8044B704707000100036801226D
:10127000186A01F01F0102FA01F120EA010010B41E
:1012800018621A6A114C1143A34219620AD0104A1B
:10129000934207D002F58062934203D002F5806248
:1012A000934203D15A6C42F400425A649968094A45
:1012B0000A40062A06D0B2F5803F03D01A6842F0F1
:1012C00001021A6000205DF8044B7047002C0140B9
:1012D000004001400700010003680868184700BF8C
:1012E00070B5064D064E32243120F36C03B1984799
:1012F0001CB1204615F8014FF7E770BD09750008CD
:101300003C020020144BDB68C3F3022310B4C3F18A
:1013100007041A1D042C28BF0424062A4FF0FF32AC
:1013200002FA04F28CBF033B002321EA0201994038
:10133000431C0AD000F1604000F561400901C9B2C8
:1013400080F800135DF8044B7047034B0901C9B2E4
:1013500083F82310F6E700BF00ED00E0F0B4B549D4
:10136000C46891F83C3082B00022012B019200F059
:10137000F2800B68012281F83C209D686D0737D40C
:101380004268042A4FF0060500F28C8005FB02F546
:101390001E6B02681F27AF4026EA070602FA05F512
:1013A00035431D639D6815F00C0F53D1092A40F297
:1013B000C08002EB42079D6986681E3F4FF0070C14
:1013C0000CFA07FC25EA0C05BE4035439D61D0E9C7
:1013D0000467DD68C5F3C1056D00013E07FA05F538
:1013E000032E10D8DFE816F01B0111010701FD00E4
:1013F0000B6C43F0200310460B64002381F83C3053
:1014000002B0F0BC70471D6E05F0F845B5EB826F79
:101410004FEA826603D11D6E25F000451D665D6EA4
:1014200005F0F845AE4203D15D6E25F000455D66DE
:101430009D6E05F0F845AE4203D19D6E25F0004546
:101440009D66DD6E05F0F845AE4203D1DD6E25F0F8
:101450000045DD669D6805F00305012D77D0012C60
:101460007BD0D3F8B0000124944020EA0400C3F8F4
:10147000B000102A2AD0112A40F086806E4A926865
:10148000D50145D49A6802F00302012A00F0E680F3
:10149000B3F1A04F3CD1684A936843F080739360E6
:1014A0000020AAE7092A35D90E2A05FB02F200F22C
:1014B0008B80A2F13C059E6B02681F27AF4026EA95
:1014C000070602FA05F535439D636BE75A4A9268B1
:1014D00016021DD49A6802F00302012A00F0B480BB
:1014E000B3F1A04F14D1544A544C9368544843F478
:1014F000000393600A232268B2FBF0F203FB02F3BD
:10150000019302E0019B013B0193019B002BF9D168
:10151000002072E705FB02F2A2F11E055E6B026875
:101520001F27AF4026EA070602FA05F535435D633B
:1015300038E75D69866802EB420C072707FA0CF76B
:1015400025EA070506FA0CF635435D613FE71D689D
:10155000EF0784D5DCE7022052E7D3F8B05094407F
:101560002C43092AC3F8B0401FD902EB4204866815
:101570009D69A4F11B000727874006FA00F425EABD
:1015800007002043986174E7122AC1D12A4A926861
:101590005402BDD49A6802F00302012A62D0264A9E
:1015A000936843F480039360B2E70132806802EBF2
:1015B000420407255A69A54022EA050200FA04F40C
:1015C00022435A61002018E7A2F15A05DE6B026837
:1015D0001F27AF4026EA070602FA05F53543DD630B
:1015E000E0E6DF6E174E45EA82653E40354345F042
:1015F0000045DD662EE79F6E124E45EA82653E404D
:10160000354345F000459D6624E75F6E0D4E45EA83
:1016100082653E40354345F000455D661AE71F6E22
:10162000084E45EA82653E40354345F000451D665B
:1016300010E700BF08120020000300500400002043
:1016400040420F0000F0FF831A68D2077FF548AFD1
:101650000B6C43F020030B640120CEE61A68D00720
:10166000F6D415E71B68DB0799D5F1E790F83C3015
:10167000012B26D030B40368134D022280F83D20A0
:10168000AB425A689C6814D022F07002B3F1804FCC
:101690005A6002D00D4A934202D124F080049C602B
:1016A0000023012280F83D2080F83C3030BC1846F1
:1016B0007047496822F470020A4322F070025A60AF
:1016C000EBE70220704700BF002C014000400140C2
:1016D00003682DE9F041DC691A6814F080060546BC
:1016E00025D1A00605D5988C40F60F031C4280B288
:1016F00015D0E20604D52A68136A43F0100313627A
:10170000630604D52A68136A43F04003136226B1C6
:101710002A68936943F010039361BDE8F081910654
:10172000E7D5D5F8303CC0B213B39847E1E7016A7A
:1017300061B9996941F010019961196821F080013E
:101740001960196821F040011960CAE7806AD5F86C
:1017500018E0EF6910F8018B0EEB070C01391FFA46
:1017600088F7604528BF70462962A8621F85B8E7E0
:10177000D5E902329A42BCD22B691870281D0FC8D5
:10178000013301448B4228BF03460132C5E90323DC
:10179000AFE700BF134B1B6819695A68914211D01B
:1017A0001969013130B4196199681D680131B1FBC3
:1017B000F2F402FB14129A609A680A28A85409D01D
:1017C00030BC70470A2802BF93F84820013283F8E2
:1017D0004820704793F84820013283F8482030BCF5
:1017E000704700BFB4130020036A23F001030362B3
:1017F000F0B4036A46688269164F8D680C6822F45B
:10180000803223F0020322F07302B84243EA050358
:1018100042EA04020AD0104CA04207D004F58064CA
:10182000A04203D004F58064A0420BD1CC6823F021
:1018300008032343D1E9054526F440762C4323F0E1
:1018400004032643496846608261F0BC4163036239
:10185000704700BF002C014000400140244A03684B
:10186000904230B43DD0B0F1804F15D002F5A05277
:10187000904226D002F58062904222D002F580622A
:1018800090421ED04D698C680A6823F080032B4378
:101890000360C462826210E04D68CC684A6923F03C
:1018A00070032B4323F44073234323F0800313433B
:1018B00003608B68C3620B688362012330BC4361A1
:1018C0007047CC684A6923F44073234323F08003B4
:1018D000134303608B68C3620B6883620B69036305
:1018E000EBE74D68CC684A6923F070032B43EAE7C5
:1018F000002C014010B590F83D3084B0044663B12F
:101900000068022384F83D30211DFFF7A7FF012363
:10191000002084F83D3004B010BD006803F0FF01E2
:101920001A4B84F83C10984211D0B0F1804F1AD075
:10193000174B9842E5D103F550439A6942F480323F
:101940009A619B6903F480330193019BD9E703F506
:1019500064439A6942F400629A619B6903F40063EC
:101960000293029BCDE70B4BDA6942F00102DA6188
:10197000DB6903F0010303931C20039BFFF7C2FC08
:10198000054B20684FF080521A60BAE7002C0140E6
:10199000004001400010024000E100E0F0B4049F6C
:1019A000104E0546006803E03468E41B9C420AD8E8
:1019B000846931EA04040CBF012400249442F3D06A
:1019C0000020F0BC70476B6C202100220B436B643D
:1019D00085F8402085F8411085F842200120F0BCB0
:1019E000704700BFDC1300202DE9F04390F8415010
:1019F000202D83B07DD1994690F84030012B0446CC
:101A000077D05E4E90463568009501220F4680F8EB
:101A1000402019234FF40041FFF7C0FF002864D194
:101A2000212384F84130102384F842306064A4F804
:101A30002A90638DC4F824809BB2FF2B60635CD82E
:101A4000628D2168DFF83CC1486892B2D3B247EAA0
:101A5000034300EA0C00034343F0024343F4005302
:101A600022854B60638D9BB2002B2BD0DFF81C814D
:101A7000DFF81C910DE08B69DA0605D52946204672
:101A8000FFF754FB002830D133685B1B0A2B3FD88B
:101A900021688B699B07EED5606A228D10F8013BA7
:101AA0008B62638D6062013B9BB26385638D013AFB
:101AB00092B29BB222850BB1002A38D0638D9BB2C3
:101AC000002BE6D129462046FFF772FB68B9236850
:101AD0002B4D2021D9615A682A405A6084F8411060
:101AE00084F8400084F8420000E0012003B0BDE823
:101AF000F083022003B0BDE8F083216821484B68E1
:101B0000214A03403B431A43FF2323854A60A9E748
:101B1000636C202100220B430120636484F8402081
:101B200084F8411084F8422003B0BDE8F0830095AA
:101B30000A2380212046FFF731FF0028D5D1638D8D
:101B40009BB2FF2B0AD921684B6803EA08033B4389
:101B500043EA0903FF2222854B60AFE7638D2168CA
:101B60009BB24A682385DBB247EA034302EA0802D4
:101B7000134343F000734B60A0E700BFDC13002069
:101B800000E800FE009800FC0020FF81009C00FCA3
:101B90000000FF012DE9F04390F84150202D83B063
:101BA00040F08480994690F84030012B04467DD067
:101BB0006A4E90463568009501220F4680F8402015
:101BC00019234FF40041FFF7E9FE00286AD12223D0
:101BD00084F84130102384F842306064A4F82A90DD
:101BE000638DC4F824809BB2FF2B606362D8628D42
:101BF0002068DFF870C1416892B2D3B247EA03436C
:101C000001EA0C010B4343F0024343F410532285D5
:101C10004360638D9BB2002B31D0DFF85081DFF839
:101C2000509123680FE09A69D20604D5FFF77EFA37
:101C3000002837D123689A6912F0200245D1316813
:101C4000491B0A2959D89A69520729462046EAD5DC
:101C5000626A5B6A1370618D228D636A013989B291
:101C60006185618D013A92B2013389B22285636246
:101C700009B1002A4CD0638D9BB2002BD1D12946EB
:101C80002046FFF795FA68B92368354D2021D961C0
:101C90005A682A405A6084F8411084F8400084F859
:101CA000420000E0012003B0BDE8F083022003B051
:101CB000BDE8F08321682B484B682B4A03403B4327
:101CC0001A43FF2323854A60A3E79A69510702D587
:101CD000228D002ABCD12025DD615968204A0120CF
:101CE000114000225960626484F8402084F8415019
:101CF00084F8422003B0BDE8F083636C84F8402090
:101D000043F0200320226364012084F84120CAE7C5
:101D100000950A2380212046FFF740FE0028C1D10C
:101D2000638D9BB2FF2B0AD92268536803EA08032C
:101D30003B4343EA0903FF21218553609BE7638D01
:101D400021689BB24A682385DBB247EA034302EA73
:101D50000802134343F000734B608CE7DC13002050
:101D600000E800FE009800FC0024FF81009C00FCBD
:101D70000000FF012DE9F04F0E6883B0002E00F047
:101D8000C880DFF8A8C100234FF001087CE0D0F83C
:101D900000B04FEA4309032202FA09F204F00307F4
:101DA0002BEA020B07FA09F70AF1FF3A47EA0B0799
:101DB000BAF1010F6FEA0202076040F29780C7682C
:101DC0008D683A4005FA09F51543E700C56057D517
:101DD000544DAA6942F00102AA61AD6923F00302E1
:101DE00002F1804205F0010502F58032019503F011
:101DF0000305019F9768AD004FF00F0909FA05F937
:101E0000B0F1904F27EA090900F08680464FB842AA
:101E100000F0848007F58067B84200F0818007F504
:101E20008067B8420CBF0327052707FA05F545EA86
:101E300009059560DCF80020E5036FEA0E0754BF42
:101E40003A404EEA0202CCF80020DCF80450A2032B
:101E500054BF3D404EEA0505CCF80450DCF808506C
:101E6000E20254BF3D404EEA0505CCF80850DCF8CC
:101E70000C20A40254BF3A404EEA0202CCF80C20D7
:101E8000013336FA03F244D008FA03F515EA060ED8
:101E9000F6D04C6824F0100ABAF1020F7FF477AF45
:101EA0004FEAD30900EB890903F00707D9F820208E
:101EB000BF004FF00F0A0AFA07FB22EA0B0A0A6971
:101EC000BA4042EA0A02C9F82020D0F800A04FEA3E
:101ED0004309032202FA09F204F003072AEA020A7C
:101EE00007FA09F747EA0A07D2430760876807EA53
:101EF000020ACF6807FA09F747EA0A078760D0F8AD
:101F000004A0C4F300172AEA05059F402F43476049
:101F100055E703B0BDE8F08F002786E7012784E787
:101F2000022782E70010024000040048000401403C
:101F300038B5114B114A1B68A2FB03239B09013BD7
:101F4000B3F1807F0CD20E4A0E495360044600253F
:101F5000F02007230F2C81F823009560136001D92E
:101F6000012038BD21464FF0FF30FFF7CBF9064B7B
:101F700028461C6038BD00BF04000020D34D62100D
:101F800010E000E000ED00E00C000020436A1A6C55
:101F900042F040021A645A6C42F004025A647047DC
:101FA000704700BF436A1A6C12F0500F16D11A6CBA
:101FB000196842F400721A64CA6812F4406F10D1B2
:101FC0005A7E72B91A6C22F480721A641A6CD204A6
:101FD00007D41A6C42F001021A6470479B6B1B6BAA
:101FE0001847704770B502681C4988B000238A42C0
:101FF000CDE90333CDE90533079304D018498A426C
:1020000019D008B070BD174A1748516941F48021B2
:1020100051615269059302F480220192019E03A945
:1020200042F2030502240622CDE9035406930792E7
:10203000FFF7A0FEE5E70B4A0B48516941F4802108
:1020400051615269059302F480220292029E03A913
:102050004FF4804502240122E6E700BF002C014036
:1020600000400140001002400004004870B582B0FA
:1020700004461D468DF8072004F108060DF10702FD
:10208000012340680091FFF7AFFC00996068ABB294
:102090003246FFF77FFD304602B070BD30B40229F2
:1020A0009DF8084006DC44EA032300EB810043EA84
:1020B0000243436030BC7047D0E9012114290FD896
:1020C000DFE801F0110E0E0E170E0E0E1D0E0E0E95
:1020D000230E0E0E290E0E0E0B0013685C330361E7
:1020E000C36810461847136834330361C368104649
:1020F0001847136838330361C368104618471368DC
:102100003C330361C36810461847136840330361CA
:10211000C36810461847136858330361C3681046F4
:10212000184700BF0369DFED047A93ED000AB8EEAB
:10213000400A80EE270A704700007A4403694FF492
:102140007A721A60704700BF036900221A607047F4
:10215000B5EEC00AF1EE10FA15D4F7EE007AB4EE3F
:10216000E70AF1EE10FA09DADFED097A036920EEE9
:10217000270ABCEEC00A83ED000A704703694FF4DA
:102180007A721A607047036900221A60704700BFB4
:1021900000007A4470B5064600F5867400F14C05DF
:1021A000236904F108010322183C084603B198474B
:1021B000AC42F5D1304670BD012A05D0022A01D1CA
:1021C0000B6803600020704701600020704700BF6B
:1021D000104BD3E90721914205D31A68136843F0E5
:1021E0008003136070475A6A10B41070D3E9064038
:1021F0005A6A196A20440132824228BF22460131BC
:10220000C3E908121A685DF8044B136843F08003B1
:1022100013607047D8030020436A094A10B504468A
:10222000026023B100F11C0108460322984763694C
:1022300023B104F10C01084603229847204610BD43
:10224000F075000880F84410704700BF10B582B0E8
:1022500004468DF8072001230DF107024068009124
:10226000FFF7C2FB0099606804F108020123FFF741
:1022700091FC207A02B010BD30B583B01D128DF8EC
:1022800006301446032301AA40688DF805508DF8E6
:102290000440FFF7A9FB03B030BD00BF30B583B0E9
:1022A00015461C4601AA022340688DF804508DF89B
:1022B0000540FFF799FB03B030BD00BF10B582B0F9
:1022C000144601230DF1070240688DF80740FFF71F
:1022D0008BFB02B010BD00BF436802891B691A4224
:1022E00014BF0120002070474268038951691942D8
:1022F00018BF1B0493617047436802899A62704754
:10230000436802899A61704700207047704700BF98
:1023100041727047F0B5037F8DB004466BB910343D
:1023200094E8070006AB83E807009DED060ADDEDA3
:10233000070A9DED081A0DB0F0BD43684E485F686E
:10234000197A3B68227A1D69854240F08F808DF8AA
:10235000242009AD89B22A4601237868019107F14A
:102360000806FFF741FB0199786832460623FFF71C
:1023700011FC3188607F49BA6181728852BAA281AA
:10238000B3885BBAE38109B21BB212B2002852D102
:1023900007EE901AF8EEE76A07EE902AB8EEE77AB1
:1023A00007EE903A94ED126AF8EEE77A67EE867AD5
:1023B00066EE866AC4ED067AD4ED117AC4ED046A3D
:1023C00027EE067AF5EE407AF1EE10FA84ED057A02
:1023D0004FF0000326D1D4ED047A94ED0B7AF0EEA1
:1023E000E77AF4EEC77AD4ED057A94ED0C7AF0EE44
:1023F000E77AF1EE10FAF4EEC77AD4ED067A94EDAE
:102400000D7A48BF2361F0EEE77AF1EE10FA48BF8B
:102410000023F4EEC77A48BF6361F1EE10FA44BFBF
:102420000023A361103494E8070006AB85E8070099
:1024300083E8070079E707EE901AF8EEE76A07EEFF
:10244000902AB8EEE77A07EE903AD4ED084A94ED78
:10245000095AD4ED0A5A94ED126AF8EEE77A76EE4C
:10246000E46A37EE457A77EEE57A9FE73846062349
:10247000A84709AD06467CE76D200008F0B5037F4C
:102480008DB004466BB9103494E8070006AB83E8BE
:1024900007009DED060ADDED070A9DED081A0DB057
:1024A000F0BD436827485F68197A3B68227A1D6946
:1024B000854241D18DF8242009AD89B22A460123F5
:1024C0007868019107F10806FFF78EFA019978689C
:1024D00032460623FFF75EFB328894ED086A52BA53
:1024E000628173885BBAA381B6881BB276BA07EEA5
:1024F000903A12B233B207EE102A06EE903AB8EED6
:10250000C77AF8EEE66AF8EEE77A66EE866A27EEB4
:10251000067A67EE867A04F11003C4ED066A84ED4C
:10252000047AC4ED057A93E8070006AB85E8070056
:1025300083E80700E681ACE738460623A84709ADE3
:102540000646C9E76D2000080177704730B505469B
:1025500083B0296008461446FDF73AFE034694E826
:1025600003006B606A4605F1080382E8030093E804
:10257000030084E8030092E8030083E80300A168F5
:102580006A69E368296128460021C4E902126B6187
:1025900003B030BD2DE9F04FD1B0CC4A209220AB32
:1025A00093E80300CA4BCB4CCB4ECC4FDFF8D8E3BB
:1025B000DFF8D883DFF8D8A3DFF8D893C3F82480F6
:1025C0001A460DF1700B8BE8030042F8044BC44C23
:1025D0001C9403F10C0500245C60546085E8030042
:1025E0009BE80300BF4DC04ABC600DF1600C8CE855
:1025F00003004FF0904CC5E9006C4FF40061298155
:102600004FF4807118AD118195E80300C3E9058E80
:10261000C7E900A94FF0200803F11C09C2E9006CCA
:10262000FC60B24A3C8289E80300C3E90AECC3F8C3
:102630003080AF49DFF860A3AE4D184602F0B5FC1C
:10264000AD4BAE49DFF854E31960AD485F60EC2153
:102650001972186383F84440AA48AB4BCEF8047053
:10266000D021CEF80000AEF80810CEF80C304FF0B4
:102670007E57A64BA64ADFF828C3CEF8583041F261
:10268000433040F23B614FF00009A24BCEF81400FA
:10269000CEF86010A048A149CEF85470CEF87870FA
:1026A0009F4FCEF81C90CEF82090CEF82490CEF814
:1026B0005090CEF86890CEF86C90CEF87090CEF82E
:1026C00010E0CEF81840AEF82840CEF85CE0CEF826
:1026D00064408EF874404FF0040ECCE90013CCE94E
:1026E00002E7C2E9001343608E4BAAF8088001603C
:1026F00019604FF008088C49C2F80880DFF8A482FE
:10270000D760C0E90247C3E901144FF480778749D5
:10271000D960A8F818708649A8F82C70854FC8F8B9
:1027200008C0C8F80C20C8F81090C8F81490C8F871
:102730001C00C8F82030C8F82490C8F82890C8F8C1
:102740000070C8F804104FF40048DFF85CC2A1F82C
:102750000880DFF85882784B784A79480E6005F196
:102760003007CCE90068C1F80480ACF808E0DFF875
:102770004092DFF840E2CAF800604FF4613C40212B
:10278000CAF80480C2E900684FF0800A1E60C3F8EE
:10279000048005F50366C5F800E0C5F82CC0C460E8
:1027A00011814FF4806838464FF400622146A3F847
:1027B00008A0C9F80C4002F01BFD424630462146F5
:1027C00002F016FDDFF8F0A1DFF8F0C1DFF8F091BC
:1027D0006E600DF1800EC5E904664FF40066704628
:1027E000C5E90977C5E90284C5E90764554BAF61BE
:1027F0005549C5F8304C5A46CCF800501C93CDE9E9
:102800001E9AFFF7A3FE18AB1A465049504B189377
:1028100026A8CDF86CA0CDF86890FFF797FE14AB12
:102820001A464C494C4B149310AD2CA8CDF85CA023
:10283000CDF85890FFF78AFE484B494910932A4635
:1028400032A80CADCDF84CA0CDF84890FFF77EFE35
:10285000444B45490C932A4638A808AD04AECDF840
:102860003CA0CDF83890FFF771FE404B40490893EB
:102870002A463EA83F4DCDF82CA0CDF82890FFF772
:1028800065FE3D4B3D490493324644A84AAECDF81F
:102890001CA0CDF81890FFF759FE394B3949CDF8F7
:1028A0000CA06A463046CDF808900093FFF74EFE24
:1028B00005F1140132220548E865C5E9001208480F
:1028C000AC6085F84840EC60EC647BE001120008E5
:1028D00014110020F0750008D8750008541000206D
:1028E0002112000864030020700300200000002073
:1028F00019220008D80300200C10002018760008C8
:10290000A470B5C0247600086876000878760008C0
:1029100090030020EC120020A40300204C76000855
:1029200025120008B80300202C1300206D120008A7
:10293000CC030020080000208C1000208010002014
:1029400048110020C53B00081075000814750008E8
:10295000D93A000818750008B13C0008B93D0008D4
:102960001C750008CD3D000820750008E13D0008F9
:10297000247500083C020020093E00082875000864
:10298000E11200082C750008051200080912000861
:1029900030760008A012002074100020981000204B
:1029A0007C0300200C020020681000200004004876
:1029B0007011002000380140D9120008D013002007
:1029C000B92100082C612C6528666C65A5F8584073
:1029D00005F16C0722AE0DF5A47856F8082CB36803
:1029E00047F8082C56F8042CBC6047F8042C3BB17F
:1029F0000222314638469847D6E90232C7E9023208
:102A00001836B04507F11807E7D100234AAC85F81E
:102A1000243100E01C46236904F108010322084622
:102A200003B1984720AAA242A4F11803F2D1029B55
:102A30001BB16946032208469847069B1BB104A9AF
:102A40000322084698470A9B1BB108A9032208469F
:102A500098470E9B1BB10CA9032208469847129B6E
:102A60001BB110A9032208469847169B1BB114A955
:102A70000322084698471A9B1BB118A9032208464F
:102A800098471E9B1BB10322594658469847044A53
:102A90000449054802F089FA51B0BDE8F08F00BF43
:102AA00000000020952100083C0200202DE9F04F95
:102AB000C26A018E916285B000230393039BB3F534
:102AC000FA6F044606D2039B01330393039BB3F5CD
:102AD000FA6FF8D3636A002B00F0D380A36ADFF8A3
:102AE000B491DFF8AC81684E684F04F11C00984740
:102AF00004F10C0304F1040A01229B465AF8045B1A
:102B000099F80030BFF35B8FD90740F1AB8098F89C
:102B10000030BFF35B8FDB0740F1948039681720EA
:102B200048E000BF00BF00BF00BF00BF00BF00BF44
:102B300000BF00BF00BF00BF00BF00BF00BF00BF9D
:102B400000BF00BF00BF00BF00BFE36A31689961EA
:102B500000BF00BF00BF00BF00BF00BF00BF00BF7D
:102B600000BF00BF00BF00BF00BF00BF00BF00BF6D
:102B700000BF00BF00BF00BF00BF00BF00BF00BF5D
:102B800000BF00BF00BF00BF00BF00BF00BF00BF4D
:102B900000BF00BF00BF00BF00BF00BF00BF00BF3D
:102BA00000BF00BF00BF00BF00BF00BF00BF0138B3
:102BB0003AD33968E36A02FA00FC1CEA050F99610E
:102BC000AFD000BF00BF00BF00BF00BF00BF00BF4D
:102BD00000BF00BF00BF00BF00BF00BF00BF00BFFD
:102BE00000BF00BF00BF00BF00BF00BF00BF00BFED
:102BF00000BF00BF00BF00BF00BF00BF00BF00BFDD
:102C000000BF00BF00BF00BF00BF00BF00BF00BFCC
:102C100000BF00BF00BF00BF00BF00BF00BF00BFBC
:102C2000E36A31689961B4E7DA457FF467AF6369B5
:102C30003BB3A36950469847E36A228E9A6105B078
:102C4000BDE8F08F124802F0B5F9012200283FF4E8
:102C500065AF216B0E483960019102F0B7F9019917
:102C600001225CE70B4802F0A5F9012200283FF49D
:102C70004EAF236B07481B04336002F0A7F9012213
:102C800045E702F0C5F900BF9C1100209811002013
:102C900000020020040200202DE98048264C237801
:102CA000BFF35B8FDE078DB040F19A81234CA068A3
:102CB00003681B699847E06803681B699847E069E7
:102CC00003681B699847206A03681B6998471C4979
:102CD0001C480B681A68834222F001021A6000F057
:102CE0009086194A934200F04B86184A934200F0AE
:102CF00094861748DFF870B0164A174DC36AC1F8BA
:102D0000305C164E048ECBF84C600BF14C01116018
:102D1000134E144A9C610023C0E90133C2F800B08D
:102D2000FFF7C4FE7068317A0368D022DB689847E9
:102D3000602840F03F8119E0080200200C020020CA
:102D4000D803002000380140004400400048004003
:102D500014110020AC13002095170008D1210008A1
:102D60000C100020B41300203C0200207068317A5F
:102D700003688922DB68984704467068317A0268E4
:102D8000D5688822A8477268317A156800EB042359
:102D900073811046EB688B22984704467068317A3D
:102DA0000268D5688A22A8477268317A156800EBF4
:102DB0000423B3811046EB688D229847044670685F
:102DC000317A0268D5688C22A8477268317A156812
:102DD00000EB0423F3811046EB688F2298470446EA
:102DE0007068317A0268D5688E22A8477268317A95
:102DF000156800EB042333821046EB689122984754
:102E000004467068317A0268D5689022A8477268D3
:102E1000317A156800EB042373821046EB68932225
:102E2000984704467068317A0268D5689222A847AC
:102E30007268317A156800EB0423B3821046EB68A0
:102E40009522984704467068317A0268D5689422C2
:102E5000A8477268317A156800EB0423F3821046A4
:102E6000EB689722984704467068317A0268D56803
:102E70009622A8477268317A156800EB04233383E1
:102E80001046EB689922984704467068317A0268C8
:102E9000D5689822A8477268317A156800EB042338
:102EA00073831046EB689B22984704467068317A1A
:102EB0000268D5689A22A8477268317A156800EBD3
:102EC0000423B3831046EB689D229847044670683C
:102ED000317A0268D5689C22A8477268317A1568F1
:102EE00000EB0423F3831046EB689F2298470446C7
:102EF0007068317A0268D5689E22A8477268317A74
:102F0000156800EB042333841046EB68A122984730
:102F1000736886F822001A68317AD4681846E2226B
:102F2000A04704467068317A0268D568E122A84754
:102F30007268317A156800EB0423B3841046EB689D
:102F4000E3229847736886F826001A68317AD468B5
:102F50001846E422A04704467068317A0268D568B2
:102F6000E522A8477568317A2A6800F00F0303EB61
:102F7000041333852846D368E622984704467068D0
:102F8000317A0268D568E522A8477568317A2A68DF
:102F9000031103EB041373852846D368E72298478F
:102FA000736886F82C001A68317A14681846F4227F
:102FB000BF23A047604B5868197A03687522DB6805
:102FC0009847682800F091845C4D65244820DBF820
:102FD0004C3003B198476CB1204615F8014FF6E725
:102FE000204601F0E7FF00283FF460AE204601F0E4
:102FF000EDFF5BE6524B1A6891684D075ED493F87B
:103000003C1001295AD0012183F83C10916801F04D
:103010000301012900F0448590684A49084240F0C4
:1030200057849168484841F001019160046804E0C8
:103030000168091B022900F24B841168C907F7D502
:10304000196C21F4706121F0010141F4807119645F
:10305000196C21F480111964D168880100F1188578
:10306000196C3A483A4D11F480511CBF596C21F04B
:1030700006015964996B002483F83C4088621C2344
:103080003448CD6208631360536843F01003536003
:10309000D36843F00103D36091F82030012B09D0AD
:1030A00091F821000123984281F8203000F0CD846E
:1030B00081F82040936843F004039360264B274A2D
:1030C0001B68D96841F00101D96099680A40062A55
:1030D00006D0B2F5803F03D01A6842F001021A60B0
:1030E0001F4BDFED208A9FED209A03F1640A9FEDCC
:1030F0001F8A1F4B1B68002B00F0A080DBF860309C
:1031000098479BF84840DBF85C3000258BF8485026
:10311000661E9847F6B2002C00F09080DBF8603015
:103120008BF824519847DBF8040000283FD0DBF8E7
:1031300000400B4B22E000BF9810002035750008BE
:10314000081200203F000080DC130020A51F0008AB
:10315000A11F00088D1F00086C130020070001004C
:10316000A0110020000000000000C8420000803ACA
:10317000B41300201A700133534518D0DBF8102027
:10318000002AF7D0DBF81020013ACBF81020DBF84A
:103190000C200132B2FBF0F100FB1122CBF80C2025
:1031A000DBF80C20A25C1A700A2AE4D11D70DBF84F
:1031B0005C309847CB49002308460131027812F071
:1031C000DF0200F04A820133DBB2142BF4D1C64C8B
:1031D000DFF81083A3680A9554E90227CDE9062792
:1031E00043B10222214608A89847D4E90232CDE92A
:1031F0000A32079F9BF82431BB4240F015820699A2
:103200003A46404603F09FFF002840F00D82B54A41
:103210000A9B013717440597002B00F057830B9B3F
:1032200008A805A998470A9B1BB108A903220846CC
:103230009847013EF6B2FF2E7FF470AFAB4A92F88A
:103240004430002B00F00D825668A94C3368117A87
:103250001D69A54240F02483FA238DF8183089B205
:10326000012306AA7068009106F10805FEF7BCFB71
:10327000009970682A460323FEF78CFC9B4E6A78FF
:1032800028787189AD78B6F90E30D6ED0C6A120146
:1032900042EA0032C1EB121000FB00F042EA1512C4
:1032A0004900B6F90C50000BC1EBD20203FB00F34E
:1032B00005FB02F29B0B03EBD22303EB830280326C
:1032C000120A07EE902AF8EEE77A96F84420736324
:1032D00087EE897A77EE267AC6ED0E7A002A00F01C
:1032E000C0817568317A2B681E69A64240F0BC82A5
:1032F000FD238DF8183089B2012306AA6868009171
:1033000005F10806FEF770FB009968683246022353
:10331000FEF740FC754F3688796B97F8263097F9A1
:103320002C20B7F92850A1F5963000FB03F300FBE1
:1033300002F2DB1203F50043921202FB03F276BAAB
:10334000B7F92A10B7F92430B6B22D05921202F55A
:103350000012C5EB863500FB115103FB02F303F5A8
:10336000005301F58042D2139B1303FB02F3DA13DF
:1033700097F8221097F8440002FB02F2D21101FBE9
:1033800002F2A3EB221323EAE373B3F1C85FA8BFF1
:103390004FF0C8531B1307EE903AF8EEE77A67EE4A
:1033A000887AC7ED107A002800F01E814F4B5D68C7
:1033B000197A2B681E69A64240F07882F7238DF8AF
:1033C000183089B2012306AA6868009105F1080443
:1033D000FEF70AFB0099686822460323FEF7DAFB32
:1033E000424A516BB2F91460B2F91220B1F5FA31C8
:1033F0004FF0000040F1FF30A1FB018901FB00F319
:1034000009EB4309F71706FB09F5D31702FB00FC8C
:1034100008FB075501FB03CCA6FB0867A2FB0123B1
:10342000CDE90023CDE902673E46019B009A2E4478
:103430000396DDE9026763440193009B350A1E038E
:10344000039B45EA07651F12019B1B0343EA1253C6
:10345000264AAD19168A47EB03030027CDE900671A
:10346000003543F50047009BA5FB0323009D05FBAA
:1034700007335D100095DD170195DDE900562E43F9
:1034800000F0B280194BA678B3F91820657824783B
:10349000D31702FB00F001FB0307144BA2FB010151
:1034A0003609B3F91A2046EA0515394445EA0434C9
:1034B0000E4F02FB09F5D31708FB0353A2FB088943
:1034C0009944C4F58013B7F91640E517CDE90245D4
:1034D0004E0446EAD0364204029812EB08024FEA44
:1034E000E37707E0A0110020A80200200C100020C4
:1034F0006D2000084FF0000146EB0905FC07891814
:103500004FEAC0024FEAC37045EB020244EA53049B
:10351000401A64EB0204031844EB04011B1844EB4B
:1035200001018A019D0142EA93625B1942EB0101AC
:1035300089009A0041EA9371131844EB01019A0043
:103540008900101841EA937144EB0101DDE9002381
:10355000FDF738FCC74FB7F920404B13420B42EA46
:10356000C14204FB03F6E51702FB0566A4FB024516
:103570003544B7F91E6004FB03F302FB0533A4FBDB
:103580000289F71706FB01F200FB07229944A6FB0C
:1035900000674FEA58631744F40C43EAC913B54E69
:1035A0001B1844EA47344FEA696241EB02021B19D7
:1035B000B6F91C404FEAE74141EB02021B0AE5174E
:1035C00043EA0263200129011212C01841EA147172
:1035D00042EB0101FDF7B8FBDFEDA77A07EE100A19
:1035E00067EE277AC6ED0F7AA44B93F87430002B60
:1035F0003FD1A24B93F82830002B40F08780A04A9F
:10360000A049136801338B4200F2068113609E4B80
:103610001A780AB100221A709C4B1A78002A3FF4DB
:1036200068AD00221A7062E5DFF870926E2775208F
:10363000DBF84C3003B198471FB1384619F8017FC9
:10364000F6E70A9B1BB108A9032208469847904B4E
:1036500018349C427FF4BEADEBE502708BF8243148
:10366000B5E5844BC3ED108A844B93F87430002B7E
:10367000BFD0824A8748D36D92F860205D68197A7E
:103680002B681C69844240F01C818DF8182089B297
:10369000012306AA6868009105F10804FEF7A4F961
:1036A0000099686822460623FEF774FA2388734857
:1036B0005BBAA0F86230628890ED1E6A52BAA0F838
:1036C0006420A1881BB249BA07EE903A0BB206EE0D
:1036D000903A13B207EE103AF8EEE66AB8EEC77AFF
:1036E000F8EEE77A654BA0F8661066EE866A27EE7C
:1036F000067A67EE867A93F82830C0ED1C6A80ED72
:103700001B7AC0ED1A7A002B3FF479AF5B4A61480F
:103710001369127D5D68197A2B681C69844240F038
:10372000CB808DF8182089B2012306AA6868009121
:1037300005F10804FEF758F9009968682246062347
:10374000FEF728FA21884D4D49BAE982628895F83A
:10375000290052BA2A83A3885BBA6B8309B21BB2D1
:1037600012B2002864D007EE901AF8EEE76A07EE6E
:10377000902AB8EEE77A07EE903AD5ED0B4A95ED30
:103780000C5AD5ED0D5A95ED156AF8EEE77A76EEFE
:10379000E46A37EE457A77EEE57A66EE866A27EEDA
:1037A000067A67EE867AC5ED076A85ED087AC5ED7B
:1037B000097A324BD3ED147AF5EE407AF1EE10FA35
:1037C0007FF41DAFD3ED077A93ED0E7AF0EEE77A32
:1037D000F4EEC77AF1EE10FA48BFC3ED078A274B23
:1037E000D3ED087A93ED0F7AF0EEE77AF4EEC77A2C
:1037F000F1EE10FA48BFC3ED088A204BD3ED097AE9
:1038000093ED107AF0EEE77AF4EEC77AF1EE10FA63
:1038100048BFC3ED098AF2E61F4B59681B89486906
:1038200018424FF0000418BF1B0414608B61EEE6D1
:1038300007EE901AF8EEE76A07EE902A0F48B8EE06
:10384000E77A07EE903A90ED156AF8EEE77A66EEC1
:10385000866A27EE067A67EE867AC0ED076A80ED03
:10386000087AC0ED097AA4E728460223FD22B04772
:1038700006464FE50C1000200000803B9810002009
:1038800004120020A0860100B0130020FC010020DB
:10389000680300206D2000086403002041750008C3
:1038A00030460323FA22A8470546E7E428460323C7
:1038B000F722B047044693E528460623A04704466E
:1038C00040E728460623A0470446EFE601F0A0FBA8
:1038D0001A6C42F010021A645A6C42F001025A64E7
:1038E000002283F83C20FFF7E9BB704E7068317A04
:1038F00003686B22DB6898477468317A226800F0AD
:10390000F8031568204643F001036B22A847F36DC6
:10391000674A5868B2670268197AD3681C229847C8
:10392000F16D4A68097A146800F0E70324681046CC
:103930001C22A04733695F4A586872650268197A89
:10394000D3681B22984733695C68197A226800F0B3
:10395000E7031568204643F018031B22A847706848
:10396000317A03686B22DB6898477268317A146891
:1039700000F0BF03246810466B22A047FFF724BB6A
:103980004D48C26942F40032C2615A684A4822F482
:1039900090425A609A6822F02A029A6042684FF474
:1039A000E06090FAA0F0B0FA80F002F4E062C24069
:1039B000424C4348A45C0268C86AE24002EB5002F1
:1039C000B2FBF0F292B2A2F110044FF6EF70844213
:1039D00098BFDA601A683B4842F001021A601A6820
:1039E000834242F00C021A6029D0374A934220D019
:1039F000364A934217D01A6842F020021A60FFF745
:103A000078B92D4A906940F480409061106B20F0A5
:103A100003001063106B1063B7E72748C26942F4D4
:103A20008022C261B1E72A4A8020C2F88401506036
:103A3000E1E7274A4020C2F884015060DBE7244ACE
:103A40002020C2F884015060D5E70B688C63022502
:103A500081F82150D1E90F671C684D68B8400B21EF
:103A600024F001041C60102D7060596002F14000C8
:103A700018490BBF99609860D860D960196841F007
:103A80000E011960196841F001011960FFF712BBBE
:103A9000196C21F4405141F480511964FFF7E0BAE8
:103AA0001168CC077FF5B8AAFFF7CABA98100020B2
:103AB00068E81F3AECC0793D00100240C875000864
:103AC000040000200038014000440040004800404D
:103AD00000E100E0B81300202DE9F041344E354CF0
:103AE00067256D20E36C03B198471DB1284616F891
:103AF000015FF7E7304BD8691F6A5E6AFCF724FD67
:103B00000B4602462D492E4803F02CFB94F850003A
:103B1000E36C40B12A4D002B45D09847E36C15F873
:103B2000010F0028F7D10BB1202098473846FCF749
:103B30000BFD0B4602462149214803F013FB94F884
:103B40005000E36C38B11E4D43B39847E36C15F851
:103B5000010F0028F8D10BB1202098473046FCF720
:103B6000F3FC0B4602461549154803F0FBFA94F89E
:103B70005000E36C38B1124D53B19847E36C15F81F
:103B8000010F0028F8D13BB1BDE8F0410A201847E9
:103B900015F8012F002AF2D1BDE8F08115F8012FA8
:103BA000002AD4D1DAE715F8012F002AB7D1BDE7F2
:103BB0004D7500083C020020981000205075000848
:103BC0008C0200202DE9F041344E354C61256D20EA
:103BD000E36C03B198471DB1284616F8015FF7E77B
:103BE000304B986EDF6E1E6FFCF7AEFC0B46024644
:103BF0002D492E4803F0B6FA94F85000E36C40B11A
:103C00002A4D002B45D09847E36C15F8010F00288A
:103C1000F7D10BB1202098473846FCF795FC0B46AE
:103C200002462149214803F09DFA94F85000E36CC4
:103C300038B11E4D43B39847E36C15F8010F0028C7
:103C4000F8D10BB1202098473046FCF77DFC0B469D
:103C500002461549154803F085FA94F85000E36CC4
:103C600038B1124D53B19847E36C15F8010F002895
:103C7000F8D13BB1BDE8F0410A20184715F8012FF3
:103C8000002AF2D1BDE8F08115F8012F002AD4D125
:103C9000DAE715F8012F002AB7D1BDE759750008FA
:103CA0003C02002098100020507500088C02002073
:103CB00070B5354E354C20256220E36C03B1984732
:103CC0001DB1284616F8015FF7E7314EB06BFCF7DF
:103CD0003BFC0B4602462F492F4803F043FA94F869
:103CE0005000E36C40B12C4D002B47D09847E36C5B
:103CF00015F8010F0028F7D10BB120209847D6ED19
:103D0000107A26492448FCEEE77A17EE903A9AB2E8
:103D100003F028FA94F85000E36C38B11E4D43B319
:103D20009847E36C15F8010F0028F8D10BB120205B
:103D30009847D6ED0F7A1A491748FCEEE77A17EE46
:103D4000902A03F00FFA94F85000E36C38B1124D4A
:103D500053B19847E36C15F8010F0028F8D13BB137
:103D6000BDE870400A20184715F8012F002AF2D14B
:103D700070BD15F8012F002AD4D1DAE715F8012F0C
:103D8000002AB5D1BBE700BF5D7500083C020020EA
:103D90000C100020507500088C020020607500088F
:103DA0006475000808B501F0D1F9A0F10100B0FA7E
:103DB00080F0400908BD00BF08B5FFF7F3FF024BD4
:103DC00083F8740008BD00BF9810002008B5FFF705
:103DD000E9FF024B83F8280008BD00BF98100020BF
:103DE00008B5074B5A681B895169194218BF1B0453
:103DF0009361FFF7D7FF034B83F8440008BD00BF72
:103E0000700300200C1000202DE9F8430646FCF753
:103E1000DFF9044600284ED0024620213046FCF748
:103E2000DFF90546002846D0304601F08FF9AA1B7D
:103E300001329442054664D3A41A1644621C3ED152
:103E4000224630462021FCF7CBF90446002840D01A
:103E5000304601F07BF9A41B013426440746E443B5
:103E6000631C3BD14FF0FF3220213046FCF7B8F9FC
:103E7000044648B3304601F069F9661C8046304676
:103E800001F064F9022D0EDC2E4A3F0407F47F078F
:103E9000C3B24FEA08283B431FFA88F802EB8505B6
:103EA00043EA08036B602748FEF700FEBDE8F843CD
:103EB0002448FEF7FBBD304601F048F905462CBB0F
:103EC000304601F043F90746304601F03FF980469D
:103ED000D5E7304601F03AF90746C3E7002CF3D0A6
:103EE000224620213046FCF77BF981460028EBD0A2
:103EF000304601F02BF9A9EB06020132A2428046BE
:103F000019D911491148234601F066F822462021AB
:103F10003046FCF765F980463046B8F1000F0CD00A
:103F200001F014F9A8EB06020132A2420746E8D8D4
:103F30001644A41A94E71644A1E701F007F90746CE
:103F4000CEE700BF141100206875000884750008D2
:103F5000014B9868FDF7BCBBD0130020014B58689B
:103F6000FDF7B6BBD0130020014B1868FDF7B0BBBE
:103F7000D0130020054BD3F888204FF0006142F4A5
:103F80007002C3F888209960704700BF00ED00E020
:103F90000C4A08B5136833B118446946884208D8FA
:103FA0001060184608BD084B1360184469468842E3
:103FB000F6D901F0DDF80C2303604FF0FF3318460B
:103FC00008BD00BF9C120020F813002008B501F0C6
:103FD000CFF816230360FEE708B501F0C9F81623F1
:103FE00003604FF0FF3008BD012070474048414951
:103FF0000268414B42F010022DE980480260CA6815
:104000004FF6FF0002401343CB609FB00020FDF746
:104010008FFF3A4B9A6942F001029A619A6902F065
:1040200001020A920A9ADA6942F08052DA61DA6988
:1040300002F080520992099A5A6802F00C02042A8E
:1040400000F0A4815A6802F00C02082A00F09A815C
:104050002A4A2B4B116841F480311160D16A21F05A
:104060000F01D1621D684FF40030012490FAA0F1D5
:10407000166890FAA0F1B1FA81F101F01F0104FA7B
:1040800001F1314240F08A811968491B6429EDD958
:10409000174A136813F0060F0AD1136823F00703B9
:1040A00043F002031360136803F00703022B45D1AA
:1040B000124A536823F0F00353604FF0007393FAF1
:1040C000A3F1106893FAA3F3B3FA83F303F01F0389
:1040D000012101FA03F3034230D05168084B21F06B
:1040E000030141F0020151601C6841F288300DE08B
:1040F0000020024000ED00E00003FA05001002403D
:10410000DC1300201968091B814217D8516801F09F
:104110000C010829F6D1C04A136803F00703022BEB
:1041200040F24985136823F0070343F0020313604C
:10413000136803F00703022B00F03D85B74DB84F1D
:104140002B6BDFF8F8A2B74C23F010032B63EB6A5C
:1041500023F4F87343F48073EB622B6B23F48073C6
:104160002B632B6B002623F480632B63CDE91A6647
:104170006B6943F400236B616B6903F400230893BC
:10418000089B6B6943F480036B616B6903F48003E4
:104190000793079B6B6943F400336B616B6903F40E
:1041A00000330693069B6B6943F480236B616B6954
:1041B00003F480230593059B6B6943F480136B61C3
:1041C0006B694FF0904903F4801304934FF48042DD
:1041D0004FF412634FF4A05B4BF2D03C0499CAF841
:1041E00028205046C9F8283017A9C7F828B0CDF8BC
:1041F0005CC0CDE91866FDF7BDFD4FF001084FF436
:10420000804217A91792CDE91966CDF86080FDF7B5
:10421000B1FD4FF4126317A94846CDE91738CDE92F
:104220001966FDF7A7FD384648F6E40317A917936A
:10423000CDE91866FDF79EFD17A9CDE917B8CDE9C0
:104240001966FDF797FD4FF4104317A948461793D9
:10425000CDE91866FDF78EFD04237348179317A95F
:10426000CDE91866FDF786FD6B6943EA08036B61CB
:104270006B6903EA0803039331460B20039BFDF7A8
:1042800041F86A4B84F820604FF400621A600C9683
:10429000236C17964FF0A0410B2008224FF4807733
:1042A0002160D906CDE91866CDE91A66C4E90A8607
:1042B000C4E90166C4E903681C9684F8306066634B
:1042C000E0616261278340F1BB80236CDA0612ADA6
:1042D00000F1CF802268936813F0040340F0C98096
:1042E000216C21F4817141F002012164916801F097
:1042F0000301012900F0D8854D486668816821F4E2
:10430000403131438160D4E90261676B607E3143A3
:1043100094F82060012F18BF4FF4805341EA4031D8
:10432000012E43EA010300F0B685A16A012902D0FB
:10433000E06A01430B43916811F00C0F0CD1D16876
:1043400021F4804121F00201D16094F83010207EE8
:10435000490041EA80310B43D66836492069314033
:104360000B430128D36000F08D85136B23F00F03FE
:10437000136300236364236C23F0030343F00103FE
:1043800023647CE05B68DD037FF562AE4FF40033AD
:1043900093FAA3F2214A126893FAA3F31F4B5A68C7
:1043A00012F00C0F00F032845A6802F00C02082A56
:1043B00000F02884012191FAA1F3B3FA83F303F109
:1043C000845303F584139A001B4B11601D68134836
:1043D000022404E01A68521B022A3FF659AE94FAEE
:1043E000A4F2066894FAA4F2B2FA82F202F01F0272
:1043F00001FA02F23242EDD00368F82292FAA2F2F8
:104400001021B2FA82F223F0F80301FA02F2134308
:10441000036000F00FBC00BF00200240001002400B
:104420000004004808120020000C004800E100E0F1
:104430000003005007C0F0FFDC1300200008004814
:10444000266C002E00F0768412AD0023226891685D
:10445000C90003D59268970040F16384236C23F070
:10446000120343F010032364636C43F0010363649D
:10447000236C236C23F0120343F0100323644FF0EA
:104480000409012700264FF0060817A8CDE9179761
:10449000CDE91A661C96CDF86480FCF75FFF4FF0FB
:1044A000030A4FF0020B17A8CDE917ABFCF756FF34
:1044B00017A8CDE917BAFCF751FF17A8CDE917796E
:1044C000FCF74CFF4FF009094FF0050A17A8CDE99A
:1044D000179AFCF743FF4FF0080B17A8CDE917B860
:1044E000FCF73CFF072317A8CDE91733FCF736FF8D
:1044F00017A8CDE9178BFCF731FF17A8CDE917A94D
:10450000FCF72CFF0A2317A8CDE91733FCF726FF89
:104510000B230F2217A8CDE91723FCF71FFF94F8F0
:104520003C300B96BB424AD023689949DA6C84F838
:104530003C700A4042F48072DA649A684FF48071E9
:10454000A164110703D4DA6822F44012DA609A6891
:1045500012F00C0F24D1DA6822F00072DA605A6986
:1045600022F038025A61DA681A6E02F0F842B2F1AB
:10457000806F00F0AB845A6E02F0F842B2F1806FA7
:1045800000F0B0849A6E02F0F842B2F1806F00F051
:10459000AF84DA6E02F0F842B2F1806F00F09C84D2
:1045A0009A6802F00302012A00F00083D3F8B020D9
:1045B00022F00202C3F8B020002384F83C30754C8E
:1045C000754B236000264FF47A7340F2CF222046C9
:1045D000C4E90263C5E90166CDE91766CDE919664C
:1045E000CDE91B66C4E90466626012961D96A66159
:1045F000FDF780F994F83C30012B00F040842068EE
:10460000022384F83D308268644B134001228360AA
:1046100084F83C6084F83D2094F83D3003F0FF02BC
:10462000002B00F0C0825E494FF0020884F83D8004
:10463000FDF714F900260127564884F83D702946F5
:10464000CDE912661496FDF711F894F83C301896EF
:104650006022BB42CDE91966CDE91B661D96179213
:1046600000F0D080206884F83D8017A984F83C7061
:10467000FDF7BAF823681B989A69DDF85CC0DDF88D
:1046800064E0454E42F008029A619A6922F0040201
:104690009A619A6902439A6184F83D7084F83D807A
:1046A0001A6A22F010021A621A6AD3F80480996911
:1046B00021F0807122F0200221F4E641B34241EA68
:1046C0000C2142EA0E1200F02982364EB34200F06D
:1046D0002C82354EB34200F0288206F58066B34244
:1046E00000F02382189EC3F8048099619E631A62C9
:1046F0009A69DFF8A4A042F400629A619A6922F4F0
:1047000080629A619A69022142EA00224FF001090F
:1047100000279A6184F83D9084F83C7084F83D103D
:104720001A6A22F480721A621A6AD3F80480D9696C
:1047300021F4803122F4007221F07301534542EAE2
:104740000E224CEA010E31D0DFF858C0634534D058
:10475000DFF854C0634530D00CF5806C63452CD035
:10476000C3F80480C3F81CE0DE631A62DA6942F021
:104770000802DA61DA6922F00402DA61DA691043C8
:10478000D8614FF4005284F83D9084F83C7038E0D2
:1047900000200882EC120020002C01408800FEFF5F
:1047A000F012002000400140004401401A9F22F412
:1047B000006242EA072222F480621D991C9FDFF802
:1047C00048C30F4328F4405848EA07175F60C3F80E
:1047D0001CE0DE631A62D969BE4A41F00801D96162
:1047E000D96921F00401D961D96901260843002162
:1047F000D861634518BF4FF4005284F83D6084F8D7
:104800003C105A64B44CB548FDF7ECFBB44B94F83B
:104810004110B448236001220023C4E90433C4E9F1
:104820000633606001F0FF07A3602362E2600029A5
:1048300000F09581D4E90032242184F841101968F0
:1048400022F0706221F0010119601A619A68E16832
:1048500022F4004201299A60A26800F0798142F4B2
:10486000044202299A6004BF4FF400625A605968FA
:10487000A669D4E9042741F0007141F40041596070
:104880003A43D868E16942EA0622266A20F40040E9
:104890003143D860DA6019601968002241F00101E3
:1048A00020201960626484F84100226384F8422069
:1048B00094F841102029C8B240F03F8194F840108C
:1048C000012900F0D982242184F84110196821F0CF
:1048D00001011960196821F4805119601968196083
:1048E000196841F00101196084F8410094F8411001
:1048F00084F84020202914D1242284F841201A6809
:1049000022F001021A601A6822F470621A601A68B2
:1049100042F001021A602021002384F8411084F83B
:104920004030714C714B236000264FF47A7340F293
:10493000CF222046C4E90263C5E90166CDE91766C6
:10494000CDE91966CDE91B66C4E90466626012967A
:104950001D96A661FCF7CEFF94F83C30012B00F0C9
:104960006D822068022384F83D308268604B1340DA
:104970000122836084F83C6084F83D2094F83D3047
:1049800003F0FF02002B00F0E7805A494FF00208C5
:1049900084F83D80FCF762FF00260127524884F826
:1049A0003D70294612961496FCF760FE94F83C3050
:1049B00018966022BB42CDE91966CDE91B661D96AB
:1049C00017921BD017A9206884F83C7084F83D80AA
:1049D000FCF70AFF23681B999A6942F008029A6162
:1049E0009A6922F004029A619A690A434FF40051CD
:1049F0009A6184F83D7084F83C6059643A483E4CB2
:104A0000FDF7F0FA002563234FF08041472220464E
:104A1000C4E90253CDE917552160626019952561FB
:104A2000A561FCF767FF94F83C30012B0CD022689D
:104A3000022384F83D3091682D4B0B400121936097
:104A400084F83C5084F83D102C4C2B48002517A9C5
:104A500017951995FCF70AFE6369294843F48023EA
:104A600063616369199503F4802301934FF0020891
:104A700018230327072617A9CDE91738019ACDE98E
:104A80001A76FDF777F9636943F40033636163696C
:104A9000CDF8608003F40033029317A94FF4C0638C
:104AA0004FF09040029A1793CDE919571B96FDF7E6
:104AB00061F96369134843F4002363616369CDF8C6
:104AC000608003F40023129317A94FF44063129AF5
:104AD0001CE000BF00200002A0120020EC12002009
:104AE000005400400E0900202C130020004001401B
:104AF0008800FEFF301300206C13002000100240DD
:104B00000004004800080048002C01401793CDE93C
:104B100019571B96FDF72EF9FEF7BEF81A9E22F0E4
:104B2000800242EA061222F04002DDE91C6728F406
:104B300040683E4348EA8608D4E594F84120202A9C
:104B40007FF4EFAE94F84020012A7FF4D5AEE8E67A
:104B500042F400429A608AE684F83C2015E7B84E99
:104B6000B848736984F8407043F4802373617369B3
:104B7000199203F4802311934FF440721223119978
:104B8000179218930322042317A91B931A92FDF777
:104B9000F1F8F36943F40013F361F36903F40013CC
:104BA0001093109B46E684F83C203CE51A68D20737
:104BB0003FF502ADFAE4A24B5A6822F4E06242F4F7
:104BC00080625A605A6822F460525A60586800F055
:104BD0000C02082A00F086809B4B994AF02152680B
:104BE00091FAA1F1B1FA81F102F0F002CA409749BD
:104BF0009748895C974A0068CB401360FDF798F9A5
:104C0000FFF79CBA5B68DC033FF5D4AB022393FA51
:104C1000A3F28B490A6893FAA3F3F8220B6892FA7D
:104C2000A2F21020B2FA82F223F0F80300FA02F2A4
:104C300013430B6082494B6803F00C03082B00F010
:104C40005D814FF0807393FAA3F3B3FA83F303F11A
:104C5000845303F584139A0000207F4B10601D6875
:104C60004FF00074012004E01A68521B022A3FF63C
:104C70000FAA94FAA4F20E6894FAA4F2B2FA82F29D
:104C800002F01F0200FA02F23242EDD14A6822F429
:104C9000741242F4E8124A604FF0807292FAA2F263
:104CA000B2FA82F202F1845202F584129200644C4C
:104CB00010601D684FF00071012004E01A68521B5B
:104CC000022A3FF6E5A991FAA1F2266891FAA1F22B
:104CD000B2FA82F202F01F0200FA02F23242EDD082
:104CE000FFF7D6B94FF4701292FAA2F2B2FA82F23A
:104CF00000F47011D140594CDA6A635C0F2191FACB
:104D0000A1F1B1FA81F102F00F02CA405449C00387
:104D1000895C4ABF4C4A534AB2FBF1F202FB03F3EF
:104D20005BE7226CD6063FF5A4AB002B3FF4D2AA7A
:104D3000FFF79FBBCDE9156666646B69E66443F0D7
:104D400080536B616B69A66403F080530F930F9BD4
:104D50006B6984F83C6043F400236B616B6903F476
:104D600000230E930E9B6B6943F400336B616B69F8
:104D7000149603F4003312AD0D9329460F235046C9
:104D80004FF003080D9ACDE91238FCF7F3FFDF234B
:104D90004846CDE913861293FCF7ECFF3249334BBA
:104DA0000A68196022F47F5222F0300242F4B462A1
:104DB0001F840A6022689E6391682D481F61C3E9C1
:104DC0000166DE611E644FF0800C4FF48067202680
:104DD000C3E90576A3635C62C3F80CC0D863CB005B
:104DE0003FF533AB936803EA0803012B00F0898099
:104DF000236CDB063FF529AB236C164823F488535C
:104E000023F0020343F0020323649168036821F056
:104E10004051916090681749B3FBF1F10A2340F0CB
:104E2000805003FB01F390600C9302E00C9B013B6C
:104E30000C930C9B002BF9D1FFF707BB20689DE575
:104E4000001002400004004800127A00B875000803
:104E50000C00002004000020DC13002080760008F5
:104E60009076000800093D0008000240581200201A
:104E70000000024040420F0094F8413051E52068A4
:104E8000FFF7CABB116BE36921F00F01013B0B4334
:104E90001363FFF76EBA68B9616A013943EA4143A7
:104EA00043F48033FFF741BA1168C8073FF52BAAD6
:104EB000FFF722BA216C21F0220141F02001216488
:104EC000616C41F001016164FFF72FBA1A6E22F0A4
:104ED00000421A66FFF74FBBDA6E22F00042DA6634
:104EE000FFF75EBB5A6E22F000425A66FFF74ABBDC
:104EF0009A6E22F000429A66FFF74BBB4B68FFF7B1
:104F0000C7B81368DF077FF573AF936803F00D032D
:104F1000012B0BD0236C43F010032364636C43F02C
:104F200001036364236C0123FFF790BA9168084B77
:104F300041F002019160C2F80080186803E019682E
:104F4000091A0229E6D89168CE07F8D450E700BFC5
:104F5000DC130020FDF71EBBDFF834D0002103E096
:104F60000C4B5B58435004310B480C4B42189A428F
:104F7000F6D30B4A02E0002342F8043B094B9A4265
:104F8000F9D3FEF7F7FF00F0F9F8FFF72FF8FEE787
:104F9000004000208479000800000020E00100208B
:104FA000E0010020F8130020FEE70B4601461846FA
:104FB00000F0D0B80368DB0706D4437803B1FFDE06
:104FC0000123437018467047002070470123036097
:104FD000704708B500F0B3F80FB480B584B000AFE7
:104FE00007F1180454F8042B7A601046FBF7F0F828
:104FF00000F2072323F00703ADEB030D00F500716A
:105000007A68FC602346684600F058F800F097F88C
:1050100008B500F094F8000080B59CB0064600AFDB
:105020000C46A41B0E496922381D00F0D3F804F188
:10503000700323F00703ADEB030D6D466822391DA5
:10504000284600F0C7F82246314605F168002C4496
:1050500000F0C0F8002384F868302846FFF7B9FF55
:10506000A07600082DE9F04100AF84B06D4605F14F
:105070000C04DFF8448023464FF00A0CB2FBFCF628
:105080000CFB162E18F80EE003F801ED9646BEF163
:10509000090F3246F2D8E41A8C4209D8C4F10C0147
:1050A0002246294400F096F82046BD46BDE8F0812E
:1050B0004FF0FF34F8E700BF0977000801392DE908
:1050C000F0410746154600EB010804462A7862B312
:1050D00044452ED2252A07D16A78732A09D07A2A24
:1050E00012D0252A00D1013515F8012B04F8012B27
:1050F000ECE753F8042B013A12F8011FE9B14445DB
:1051000017D004F8011BF7E7AA78752AECD11E46E0
:10511000A8EB040156F8042B2046FFF7A3FF002854
:1051200007DD044403353346D0E72270E01BBDE8B9
:10513000F08121463846FFF76FFF0235C6E708B514
:10514000062000F0A9FD0120FEF740FF0A22002101
:1051500000F038BE10B5054C13462CB10A46014686
:105160000220AFF3008010BD2046FCE700000000E5
:10517000014B1868704700BF1000002070B50D4D3E
:105180000D4C641BA4100026A64209D10B4D0C4CFB
:1051900002F0ACF9641BA4100026A64205D170BD34
:1051A00055F8043B98470136EEE755F8043B98471D
:1051B0000136F2E7787900087879000878790008F4
:1051C00080790008024B0146186800F069B800BFFA
:1051D000100000200A44914200F1FF3300D17047D3
:1051E00010B511F8014B03F8014F9142F9D110BDF0
:1051F00002440346934200D1704703F8011BF9E7CC
:1052000037B5002948D051F8043C0190002BA1F19A
:105210000404B8BFE41801F05FFC204A0198136849
:10522000154633B96360146003B0BDE8304001F047
:1052300059BCA3420BD921686218934204BF1A6873
:105240005B68636004BF521822602C60ECE71A466A
:105250005B680BB1A342FAD911685518A5420BD16E
:10526000246821445418A3421160DDD11C685B6896
:10527000536021441160D7E702D90C230360D3E7C0
:10528000256861198B4204BF19685B68636004BFBD
:10529000491921605460C7E703B030BDE013002016
:1052A000F8B5CD1C25F0030508350C2D38BF0C25AD
:1052B000002D064601DBA94203D90C2333600020F0
:1052C000F8BD01F009FC21490A6814469CB9204F39
:1052D0003B6823B92146304600F0A6FC38602946D9
:1052E000304600F0A1FC431C23D10C233360304630
:1052F00001F0F8FBE3E723685B1B17D40B2B03D902
:1053000023601C44256004E06368A2420CBF0B606C
:105310005360304601F0E6FB04F10B00231D20F042
:105320000700C21ACCD01B1AA350C9E722466468F2
:10533000CCE7C41C24F00304A042E3D0211A304679
:1053400000F072FC0130DDD1CFE700BFE013002098
:10535000E41300202DE9FF4755EC104B002D0E46BD
:1053600019462B46BBBF05F100431D4600232D23E4
:105370000B700D9BDDF830A0914623F02008BCBFD8
:1053800022461446B8F1460F05D0B8F1450F00D1BA
:105390000136022100E0032103AB019302AB00932D
:1053A00045EC104B5346324600F0A2FDB8F1470FD2
:1053B000074602D119F0010F22D0B8F1460F07EBD2
:1053C000060910D13B78302B0AD100220023204659
:1053D0002946FBF779FB18B9C6F10106CAF8006047
:1053E000DAF8003099440022002320462946FBF7D2
:1053F0006BFB08B1CDF80C903022039B4B4507D3D3
:10540000039B0E9ADB1B3846136004B0BDE8F0879F
:10541000591C03911A70F0E7F7B503460029B8BF8D
:10542000494203F8022BB4BF2D222B2209294270D6
:105430002ADD0DF10704A4460A27A6460A4691FB79
:10544000F7F607FB16153035632A04F1FF340EF822
:10545000015C3146F1DC3031AEF1020504F8011C8B
:10546000441C294661450AD30DF10902A2EB0E0244
:10547000654588BF00221344181A03B0F0BD11F827
:10548000012B04F8012FEDE7302330318370C17018
:10549000031DF1E72DE9F04F2DED028B8DB00C4689
:1054A000DDF8608016461F46054601F0FFFAD0F889
:1054B00000A05046FAF78CFE00230A932368059358
:1054C000D8F8003094F818B0073323F0070303F13D
:1054D0000802C8F80020D3E90023C4E91223D4E964
:1054E000128929F000430793CDF8188008EE100ABE
:1054F0009F4BDDE906014FF0FF32FBF717FB88BB3E
:10550000DDE906019A4B4FF0FF32FBF7F1FA48BB99
:105510000022002340464946FBF7E0FA10B12D2354
:1055200084F84330934B9448BBF1470F94BF98469F
:10553000804603232361059B23F0040222604FF081
:105540000009009733460BAA2146284600F0D8F9F7
:10555000013040F090804FF0FF300DB0BDEC028B79
:10556000BDE8F08F42464B4640464946FBF7DEFA1F
:1055700040B14B46002BBCBF2D2384F843307F48FD
:105580007F4BD1E763680BF0DF0206925A1C3FD1D4
:1055900006236360059B616843F4806200230393E4
:1055A0000AABCDE901B309AB49EC108B0093226043
:1055B0000DF123032846FFF7CDFE069B0999472BE3
:1055C000804608D1C81C02DB6368994241DDABF11B
:1055D000020B5FFA8BFBBBF1650F20D801395A46ED
:1055E00004F150000991FFF717FF0A9A1318012AD6
:1055F0008146236102DC2268D20701D50133236191
:105600009DF82330002B9CD02D2384F8433098E75D
:10561000069A472ABED1002BBCD10123B9E7BBF1C2
:10562000660F18D1002963680BDD216113B9226868
:10563000D00702D501330B442361A1654FF0000967
:10564000DEE713B92268D20701D50233F4E701235C
:10565000F2E74FF0670B0A9B994205DB2368216153
:10566000D807EAD54B1CE7E70029D4BFC1F10202F5
:1056700001221344E0E723685A0507D42369424610
:1056800031462846B84701302CD164E7BBF1650F9D
:1056900040F2E080D4E9120100220023FBF714FA63
:1056A000002834D0374A012331462846B847013014
:1056B0003FF451AFDDE909239A4202DB2368D807A2
:1056C00010D518EE103A524631462846B8470130F8
:1056D0003FF441AF4FF0000804F11A090A9B013B67
:1056E000434509DC23689B0700F10581E0680B9BBB
:1056F0009842B8BF184630E701234A46314628464B
:10570000B84701303FF427AF08F10108E6E7099BED
:10571000002B39DC1B4A012331462846B8470130AB
:105720003FF419AFDDE90923134302D12368D907F8
:10573000D8D518EE103A524631462846B8470130BF
:105740003FF409AF4FF0000904F11A0A099B5B42CC
:105750004B4501DC0A9B92E701235246314628461D
:10576000B84701303FF4F7AE09F10109EEE700BF99
:10577000FFFFEF7F147700081877000820770008F4
:105780001C770008247700080A9AA36D9A42A8BFE4
:105790001A46002A914637DC4FF0000B29EAE979D6
:1057A00004F11A02A36D0593A3EB09035B4533DCF7
:1057B000DDE909239A423BDB2368DA0738D40A9AE9
:1057C000059B0999D31AA2EB01099945A8BF9946EF
:1057D000B9F1000F35DC4FF0000829EAE97904F14E
:1057E0001A0ADDE909239B1AA3EB090343457FF756
:1057F00079AF0123524631462846B84701303FF47D
:10580000AAAE08F10108ECE71346314642462846A5
:10581000B8470130C0D19EE60123314628460592A3
:10582000B84701303FF497AE059A0BF1010BB9E789
:1058300018EE103A524631462846B8470130BED1DC
:1058400089E6059A4B46424431462846B84701301E
:10585000C1D180E60A9A012A01DCDB0738D5012391
:10586000424631462846B84701303FF474AE18EE40
:10587000103A524631462846B84701303FF46BAEE5
:10588000D4E9120100220023FBF71EF9D8B90A9BC4
:1058900008F10102013B31462846B84701300ED1DC
:1058A00059E60123524631462846B84701303FF4B5
:1058B00052AE08F101080A9B013B4345F1DC4B461F
:1058C00004F15002DCE64FF0000804F11A0AF2E796
:1058D00001234246DFE701234A4631462846B847BE
:1058E00001303FF438AE08F10108E3680B995B1A08
:1058F0004345F0DCFAE64FF0000804F11909F4E73B
:105900002DE9F047164699468A680B69DDF8208034
:105910009342B8BF1346336091F8432007460C46C4
:105920000AB1013333602368990642BF33680233FA
:105930003360256815F0060506D104F1190AE368FD
:1059400032689B1AAB4226DC94F84320131E22686F
:1059500018BF012392062BD404F14302494638466E
:10596000C04701301ED02368E568326803F00603A3
:10597000042B08BFAD1AA36822690CBF25EAE575A0
:1059800000259342C4BF9B1AED1800261A34B54275
:105990001AD1002008E00123524649463846C04744
:1059A000013003D14FF0FF30BDE8F0870135C6E785
:1059B000E1185A1C302081F84300224494F8451025
:1059C00082F843100233C7E701232246494638468E
:1059D000C0470130E6D00136D9E700002DE9FF4786
:1059E0000C469146277E0C99782F80469A4604F102
:1059F000430207D8622F0AD8002F00F0D880582F12
:105A000000F0A38004F1420684F842703AE0A7F166
:105A10006303152BF6D801A050F823F0755A00083F
:105A2000895A0008055A0008055A0008055A000856
:105A3000055A0008895A0008055A0008055A000846
:105A4000055A0008055A0008955B0008B95A000875
:105A5000775B0008055A0008055A0008B75B000884
:105A6000055A0008B95A0008055A0008055A0008E6
:105A70007F5B00080B681A1D1B680A6004F1420670
:105A800084F842300123A3E0256808682E0600F15F
:105A900004030AD505680B60002D03DA2D236D423F
:105AA00084F843305E480A2319E015F0400F05687A
:105AB0000B6018BF2DB2EFE70B682568181D086052
:105AC000280601D51D6802E06906FBD51D885448EB
:105AD0006F2F0CBF08230A23002184F84310666847
