:020000040800F2
:1000000000400020DD570008E9560008EB560008C4
:10001000ED560008EF560008F156000800000000F9
:10002000000000000000000000000000F35600087F
:10003000F556000800000000F7560008F9560008C1
:100040002D5800082D5800082D5800082D5800087C
:100050002D5800082D5800082D5800082D5800086C
:100060002D5800082D5800082D5800080957000881
:100070002D5800082D5800082D5800082D5800084C
:100080002D5800082D5800082D58000800000000C9
:100090000000000000000000000000002D580008D3
:1000A0002D5800082D5800082D5800082D5800081C
:1000B0001557000800000000000000002D5800083F
:1000C0002D5800082D5800082D5800080000000089
:1000D0002D5800081D5C0008295C0008355C0008EC
:1000E0002D5800082D5800080000000000000000F6
:1000F0000000000000000000000000000000000000
:100100000000000000000000000000002D58000862
:1001100000000000000000002D5800080000000052
:1001200000000000000000000000000000000000CF
:1001300000000000000000000000000000000000BF
:100140002D5800082D580008000000000000000095
:10015000000000000000000000000000000000009F
:100160002D5800082D580008000000000000000075
:10017000000000000000000000000000000000007F
:08018000000000002D580008EA
:1001900010B5054C237833B9044B13B10448AFF3C1
:1001A00000800123237010BDE40100200000000046
:1001B000888C000808B5034B1BB103490348AFF313
:1001C000008008BD00000000E8010020888C0008C5
:1001D00001F0FF01102A2BDB10F0070F08D010F8F8
:1001E000013B013A8B422DD010F0070F42B3F6D1FC
:1001F000F0B441EA012141EA014122F007047FF015
:1002000000070023F0E80256083C85EA010586EA6B
:10021000010685FA47F5A3FA87F586FA47F6A5FAA7
:1002200087F68EB9EED1F0BC01F0FF0102F00702B3
:1002300032B110F8013B013A83EA010313B1F8D15E
:100240000020704701387047002D06BF354603383F
:10025000073815F0010F07D1013015F4807F02BF78
:10026000013015F4C03F0130F0BC0138704700BFC9
:10027000034613F8012B002AFBD1181A01387047E6
:1002800081F0004102E000BF83F0004330B54FEA47
:1002900041044FEA430594EA050F08BF90EA020FB4
:1002A0001FBF54EA000C55EA020C7FEA645C7FEA47
:1002B000655C00F0E2804FEA5454D4EB5555B8BF6A
:1002C0006D420CDD2C4480EA020281EA030382EADB
:1002D000000083EA010180EA020281EA0303362D6D
:1002E00088BF30BD11F0004F4FEA01314FF4801C40
:1002F0004CEA113102D0404261EB410113F0004F52
:100300004FEA03334CEA133302D0524263EB430308
:1003100094EA050F00F0A780A4F10104D5F1200EA6
:100320000DDB02FA0EFC22FA05F2801841F1000101
:1003300003FA0EF2801843FA05F359410EE0A5F1D5
:1003400020050EF1200E012A03FA0EFC28BF4CF006
:10035000020C43FA05F3C01851EBE37101F00045BC
:1003600007D54FF0000EDCF1000C7EEB00006EEBC9
:100370000101B1F5801F1BD3B1F5001F0CD3490853
:100380005FEA30004FEA3C0C04F101044FEA4452AA
:1003900012F5800F80F09A80BCF1004F08BF5FEA31
:1003A000500C50F1000041EB045141EA050130BD11
:1003B0005FEA4C0C404141EB0101013C28BFB1F523
:1003C000801FE9D291F0000F04BF01460020B1FA6E
:1003D00081F308BF2033A3F10B03B3F120020CDA41
:1003E0000C3208DD02F1140CC2F10C0201FA0CF01F
:1003F00021FA02F10CE002F11402D8BFC2F1200C84
:1004000001FA02F120FA0CFCDCBF41EA0C01904039
:10041000E41AA2BF01EB0451294330BD6FEA040482
:100420001F3C1CDA0C340EDC04F11404C4F120026D
:1004300020FA04F001FA02F340EA030021FA04F37F
:1004400045EA030130BDC4F10C04C4F1200220FAD6
:1004500002F001FA04F340EA0300294630BD21FA14
:1004600004F0294630BD94F0000F83F4801306BFDA
:1004700081F480110134013D4EE77FEA645C18BFCE
:100480007FEA655C29D094EA050F08BF90EA020F65
:1004900005D054EA000C04BF1946104630BD91EA5D
:1004A000030F1EBF0021002030BD5FEA545C05D160
:1004B0004000494128BF41F0004130BD14F580049F
:1004C0003CBF01F5801130BD01F0004545F0FE4113
:1004D00041F470014FF0000030BD7FEA645C1ABF48
:1004E000194610467FEA655C1CBF0B46024650EA7F
:1004F000013406BF52EA033591EA030F41F40021AB
:1005000030BD00BF90F0000F04BF0021704730B530
:100510004FF4806404F132044FF000054FF0000105
:1005200050E700BF90F0000F04BF0021704730B5C6
:100530004FF4806404F1320410F0004548BF40429B
:100540004FF000013EE700BF42004FEAE2014FEAF0
:1005500031014FEA02701FBF12F07F4393F07F4FCB
:1005600081F06051704732F07F4208BF704793F0CE
:100570007F4F04BF41F40021704730B54FF46074E1
:1005800001F0004521F000411CE700BF50EA0102E4
:1005900008BF704730B54FF000050AE050EA01028D
:1005A00008BF704730B511F0004502D5404261EBFD
:1005B00041014FF4806404F132045FEA915C3FF43E
:1005C000D8AE4FF003025FEADC0C18BF03325FEADB
:1005D000DC0C18BF033202EBDC02C2F1200300FA8C
:1005E00003FC20FA02F001FA03FE40EA0E0021FAB1
:1005F00002F11444BDE600BF70B54FF0FF0C4CF49F
:10060000E06C1CEA11541DBF1CEA135594EA0C0F50
:1006100095EA0C0F00F0DEF82C4481EA030621EA8B
:100620004C5123EA4C5350EA013518BF52EA0335C6
:1006300041F4801143F4801338D0A0FB02CE4FF078
:100640000005E1FB02E506F00042E0FB03E54FF0A8
:100650000006E1FB03569CF0000F18BF4EF0010EA0
:10066000A4F1FF04B6F5007F64F5407404D25FEA9C
:100670004E0E6D4146EB060642EAC62141EA55514F
:100680004FEAC52040EA5E504FEACE2EB4F1FD0C91
:1006900088BFBCF5E06F1ED8BEF1004F08BF5FEA0F
:1006A000500E50F1000041EB045170BD06F00046C1
:1006B00046EA010140EA020081EA0301B4EB5C046E
:1006C000C2BFD4EB0C0541EA045170BD41F4801166
:1006D0004FF0000E013C00F3AB8014F1360FDEBF8B
:1006E000002001F0004170BDC4F10004203C35DA67
:1006F0000C341BDC04F11404C4F1200500FA05F3EA
:1007000020FA04F001FA05F240EA020001F000428A
:1007100021F0004110EBD37021FA04F642EB060100
:100720005EEA430E08BF20EAD37070BDC4F10C042A
:10073000C4F1200500FA04F320FA05F001FA04F2EE
:1007400040EA020001F0004110EBD37041F10001DA
:100750005EEA430E08BF20EAD37070BDC4F12005E5
:1007600000FA05F24EEA020E20FA04F301FA05F24D
:1007700043EA020321FA04F001F0004121FA04F2F5
:1007800020EA020000EBD3705EEA430E08BF20EAC5
:10079000D37070BD94F0000F0FD101F000464000FF
:1007A00041EB010111F4801F08BF013CF7D041EA81
:1007B000060195F0000F18BF704703F00046520085
:1007C00043EB030313F4801F08BF013DF7D043EA56
:1007D0000603704794EA0C0F0CEA135518BF95EA0C
:1007E0000C0F0CD050EA410618BF52EA4306D1D193
:1007F00081EA030101F000414FF0000070BD50EAB2
:10080000410606BF1046194652EA430619D094EA3B
:100810000C0F02D150EA013613D195EA0C0F05D125
:1008200052EA03361CBF104619460AD181EA030179
:1008300001F0004141F0FE4141F470014FF0000031
:1008400070BD41F0FE4141F4780170BD70B54FF0CC
:10085000FF0C4CF4E06C1CEA11541DBF1CEA13554C
:1008600094EA0C0F95EA0C0F00F0A7F8A4EB05042E
:1008700081EA030E52EA03354FEA013100F0888025
:100880004FEA03334FF0805545EA131343EA1263EE
:100890004FEA022245EA111545EA10654FEA0026A3
:1008A0000EF000419D4208BF964244F1FD0404F55C
:1008B000407402D25B084FEA3202B61A65EB0305B8
:1008C0005B084FEA32024FF480104FF4002CB6EB75
:1008D000020E75EB030E22BFB61A754640EA0C00F5
:1008E0005B084FEA3202B6EB020E75EB030E22BF35
:1008F000B61A754640EA5C005B084FEA3202B6EB76
:10090000020E75EB030E22BFB61A754640EA9C0034
:100910005B084FEA3202B6EB020E75EB030E22BF04
:10092000B61A754640EADC0055EA060E18D04FEAC2
:10093000051545EA16754FEA06164FEAC30343EA62
:1009400052734FEAC2025FEA1C1CC0D111F4801F2F
:100950000BD141EA00014FF000004FF0004CB6E728
:1009600011F4801F04BF01430020B4F1FD0C88BFC7
:10097000BCF5E06F3FF6AFAEB5EB030C04BFB6EBD2
:10098000020C5FEA500C50F1000041EB045170BDC5
:100990000EF0004E4EEA113114EB5C04C2BFD4EBF2
:1009A0000C0541EA045170BD41F480114FF0000E76
:1009B000013C90E645EA060E8DE60CEA135594EAF2
:1009C0000C0F08BF95EA0C0F3FF43BAF94EA0C0FF5
:1009D0000AD150EA01347FF434AF95EA0C0F7FF46A
:1009E00025AF104619462CE795EA0C0F06D152EABE
:1009F00003353FF4FDAE1046194622E750EA4106A2
:100A000018BF52EA43067FF4C5AE50EA41047FF4B2
:100A10000DAF52EA43057FF4EBAE12E74FF0FF3C17
:100A200006E000BF4FF0010C02E000BF4FF0010CE8
:100A30004DF804CD4FEA410C7FEA6C5C4FEA430C61
:100A400018BF7FEA6C5C1BD001B050EA410C0CBFB0
:100A500052EA430C91EA030F02BF90EA020F002012
:100A6000704710F1000F91EA030F58BF994208BF79
:100A700090422CBFD8176FEAE37040F00100704736
:100A80004FEA410C7FEA6C5C02D150EA013C07D18D
:100A90004FEA430C7FEA6C5CD6D152EA033CD3D0D8
:100AA0005DF8040B704700BF8446104662468C46D2
:100AB0001946634600E000BF01B5FFF7B7FF002805
:100AC00048BF10F1000F01BD4DF808EDFFF7F4FF2E
:100AD0000CBF012000205DF808FB00BF4DF808EDB9
:100AE000FFF7EAFF34BF012000205DF808FB00BFDC
:100AF0004DF808EDFFF7E0FF94BF012000205DF8FE
:100B000008FB00BF4DF808EDFFF7CEFF94BF0120B2
:100B100000205DF808FB00BF4DF808EDFFF7C4FFAB
:100B200034BF012000205DF808FB00BF4FEA410CF4
:100B30007FEA6C5C02D150EA013C0AD14FEA430CD7
:100B40007FEA6C5C02D152EA033C02D14FF0000014
:100B500070474FF0010070474FEA410212F5001252
:100B600015D211D56FF47873B3EB625212D94FEAF4
:100B7000C12343F0004343EA505311F0004F23FADE
:100B800002F018BF404270474FF00000704750EA33
:100B9000013005D111F0004008BF6FF000407047F0
:100BA0004FF00000704700BF80F0004002E000BF3F
:100BB00081F0004142001FBF5FEA410392EA030F48
:100BC0007FEA226C7FEA236C6AD04FEA1262D2EB92
:100BD0001363C1BFD218414048404140B8BF5B4297
:100BE000192B88BF704710F0004F40F4000020F030
:100BF0007F4018BF404211F0004F41F4000121F046
:100C00007F4118BF494292EA030F3FD0A2F101028F
:100C100041FA03FC10EB0C00C3F1200301FA03F1CD
:100C200000F0004302D5494260EB4000B0F5000FF0
:100C300013D3B0F1807F06D340084FEA310102F1AF
:100C40000102FE2A51D2B1F1004F40EBC25008BF61
:100C500020F0010040EA03007047490040EB00002B
:100C6000013A28BFB0F5000FEDD2B0FA80FCACF12C
:100C7000080CB2EB0C0200FA0CF0AABF00EBC25059
:100C800052421843BCBFD0401843704792F0000F47
:100C900081F4000106BF80F400000132013BB5E79A
:100CA0004FEA41037FEA226C18BF7FEA236C21D010
:100CB00092EA030F04D092F0000F08BF0846704775
:100CC00090EA010F1CBF0020704712F07F4F04D143
:100CD000400028BF40F00040704712F100723CBF56
:100CE00000F50000704700F0004343F0FE4040F480
:100CF000000070477FEA226216BF08467FEA23633E
:100D00000146420206BF5FEA412390EA010F40F428
:100D1000800070474FF0000304E000BF10F0004374
:100D200048BF40425FEA000C08BF704743F096435B
:100D300001464FF000001CE050EA010208BF704776
:100D40004FF000030AE000BF50EA010208BF7047FD
:100D500011F0004302D5404261EB41015FEA010C12
:100D600002BF84460146002043F0B64308BFA3F10A
:100D70008053A3F50003BCFA8CF2083AA3EBC253EC
:100D800010DB01FA02FC634400FA02FCC2F120020B
:100D9000BCF1004F20FA02F243EB020008BF20F042
:100DA0000100704702F1200201FA02FCC2F12002A8
:100DB00050EA4C0021FA02F243EB020008BF20EA9D
:100DC000DC7070477BB972B90029BEBF00204FF0BC
:100DD000004106E008BF00281CBF6FF000414FF043
:100DE000FF3000F0A1B9ADF1080C6DE904CE002987
:100DF00009DB002B1ADB00F035F8DDF804E0DDE953
:100E0000022304B07047404261EB4101002B1BDB21
:100E100000F028F8DDF804E0DDE9022304B04042E8
:100E200061EB4101524263EB43037047524263EB73
:100E3000430300F017F8DDF804E0DDE9022304B015
:100E4000404261EB41017047524263EB430300F0C3
:100E500009F8DDF804E0DDE9022304B0524263EB57
:100E6000430370472DE9F047089D04468C46002B4C
:100E700040F083808A42174647D9B2FA82F242B1E3
:100E8000C2F1200024FA00F09140974040EA010CA2
:100E900094404FEA1748230CBCFBF8F61FFA87FE74
:100EA00008FB16C143EA014306FB0EF1994209D93A
:100EB000FB1806F1FF3080F01981994240F216814B
:100EC000023E3B445B1AA4B2B3FBF8F008FB1033BC
:100ED00044EA034400FB0EFEA64509D93C1900F183
:100EE000FF3380F00581A64540F2028102383C4480
:100EF00040EA0640A4EB0E0400261DB1D4400023B6
:100F0000C5E900433146BDE8F08702B9FFDEB2FA19
:100F100082F2002A50D1CB1B4FEA174E1FFA87F8F6
:100F20000126B3FBFEFC210C0EFB1C3341EA0341FE
:100F300008FB0CF38B4207D979180CF1FF3002D271
:100F40008B4200F2E9808446C91AA3B2B1FBFEF0DD
:100F50000EFB101143EA014408FB00F8A04507D935
:100F60003C1900F1FF3302D2A04500F2D9801846A7
:100F7000A4EB080440EA0C40BFE78B4209D9002DDE
:100F800000F0B1800026C5E9000130463146BDE8D9
:100F9000F087B3FA83F6002E4AD18B4202D3824205
:100FA00000F2B880841A61EB030101208C46002D09
:100FB000A8D0C5E9004CA5E7C2F1200320FA03F64A
:100FC000974001FA02F04FEA174ED9403043030C24
:100FD000B1FBFEF61FFA87F80EFB161143EA014338
:100FE00006FB08F1994204FA02F409D9FB1806F14C
:100FF000FF3C80F08D80994240F28A80023E3B4463
:101000005B1A81B2B3FBFEF00EFB103341EA0341E1
:1010100000FB08F38B4207D9791800F1FF3C73D22B
:101020008B4271D902383944CB1A40EA064678E738
:10103000C6F1200C03FA06F422FA0CF31C4320FA42
:101040000CF701FA06F34FEA144E21FA0CF11F4394
:101050003B0CB1FBFEF91FFA84F80EFB191143EAB1
:10106000014109FB08FA8A4502FA06F200FA06F382
:1010700008D9611809F1FF3048D28A4546D9A9F14B
:1010800002092144A1EB0A01BFB2B1FBFEF00EFB45
:10109000101147EA014700FB08F8B84507D9E719DE
:1010A00000F1FF312ED2B8452CD90238274440EA4E
:1010B0000940A7EB0807A0FB02894F45C6464946F1
:1010C0001AD317D05DB1B3EB0E0267EB010707FA35
:1010D0000CFCF2404CEA0202F740C5E9002700266A
:1010E0003146BDE8F0872E4628460BE70646E9E67E
:1010F0001846FDE64345E5D2B8EB020E69EB040164
:101100000138DFE70846D2E760468DE78146B9E758
:10111000664675E730464AE7ACF1020C394413E7FE
:1011200002383C4424E700BF704700BF38B50E4A80
:101130000E4B054618784FF47A73B3FBF0F3106842
:10114000B0FBF3F000F078FD044658B90F2D09D834
:10115000024629464FF0FF3000F02EFD044B20469A
:101160001D6038BD0120FCE71000002004000020B5
:1011700008000020074A08B5136843F01003136005
:10118000032000F007FD0020FFF7D0FF04F07AF9FC
:10119000002008BD00200240034A044B11681B7860
:1011A0000B441360704700BF4C1200200400002065
:1011B000014B1868704700BF4C1200207047704701
:1011C0007047406A036C43F040030364436C43F090
:1011D00004034364FFF7F4BF406AFFF7F0BF436ABC
:1011E0001A6C12F0500F18D11A6C42F400721A6483
:1011F0001A68D26812F4406F0CD15A7E52B91A6C38
:1012000022F480721A641A6CD2045EBF1A6C42F027
:1012100001021A641846FFF7D1BF9B6B1B6B18477E
:1012200038B503680446986800F00300012801D02F
:10123000002038BD1A68D207FAD59A6802F00D026C
:10124000012A1BD19A6842F002029A6003221A60B6
:10125000FFF7AEFF054623689B68DB07E8D5FFF77D
:10126000A7FF401B0228F6D9236C43F01003236428
:10127000636C43F0010363640120DAE7236C43F0FD
:1012800010032364636C43F001036364D1E700003F
:1012900038B503689A6802F00302012A044604D1B3
:1012A0001A68D20701D5002038BD99680E4A11424C
:1012B00009D0236C43F010032364636C43F00103F3
:1012C00063640120F0E79A6842F001029A60FFF738
:1012D0006FFF054623681B68DB07E4D4FFF768FF50
:1012E000401B0228F6D9E4E73F00008073B50023D5
:1012F00001930446002800F0D480026CD20600F16D
:10130000BD80036C002B00F08380002023689A6866
:10131000D50002D59B6899000AD5236C23F01203EF
:1013200043F010032364636C43F001036364012002
:10133000236CDA0600F1AF80002840F0AC80226810
:10134000916811F0040140F0A680236C23F48173AE
:1013500043F002032364936803F00303012B02D1DB
:101360001368DB0706D4504D6668AB6823F440333E
:101370003343AB60636B657E012BD4E9026343EAC0
:10138000060318BF4FF4805143EA45330B4394F8EA
:101390002010012907D1002D72D1616A013943EA79
:1013A000414343F48033A16A01291EBFE56A294302
:1013B0000B43916811F00C0F0CD1D16821F48041DE
:1013C00021F00201D16094F83010257E490041EAF5
:1013D00085310B43D568354929400B43D3602369D8
:1013E000012B05BF116BE369136B03F1FF3306BFDC
:1013F00021F00F010B4323F00F03136300236364F9
:10140000236C23F0030343F00103236402B070BD97
:10141000C0E91233436480F83C3004F04BF8236891
:101420009B68DB003FF571AF2046FFF7F9FE226CA9
:10143000D6063FF56BAF00287FF468AF236C2268B7
:1014400023F4885323F0020343F0020323649368D8
:1014500023F040539360936843F080539360144BA0
:10146000144A1B68B3FBF2F20A2353430193019B16
:10147000002B3FF44AAF019B013BF7E7184657E7C3
:10148000216C21F0220141F020012164616C41F0C6
:101490000101616487E7236C23F0120343F010031A
:1014A00023640120B2E700BF0003005007C0F0FF33
:1014B0001000002040420F00F7B5019202689568C5
:1014C00015F0040504460F464ED190F83C20012A41
:1014D0004AD0012280F83C20FFF7DAFE06460028B9
:1014E0003FD1256C2168019B25F4706525F001052D
:1014F00045F480752564226C22F480122264CA6847
:1015000012F0007F1FBF206C20F4405040F4805048
:101510002064226CA06B12F480521CBF626C22F01B
:1015200006026264002284F83C20104A8262104A5B
:10153000C262104A02631C220A604A6842F010022A
:101540004A60CA6842F00102CA603A46403100F07F
:10155000B7FB2268936843F004039360304603B0FE
:10156000F0BD84F83C50F9E70226F7E7DF110008E8
:10157000D9110008C31100082DE9F341002301939C
:1015800090F83C30CE68012B054600F0518103688D
:10159000012280F83C209868470700F143814868A1
:1015A0000A680624042804FB00F431D8186B1F27AE
:1015B000A74020EA070002FA04F404431C63986879
:1015C00010F00C0F5CD1092AD1F808C002EB4200E0
:1015D0004FF0070441D99F691E38844027EA04046C
:1015E0000CFA00F020439861D868C0F3C10C486938
:1015F0004FEA4C0C00FA0CFC086900F1FF3E4FEA80
:101600008268BEF1030F6BD8DFE80EF03049545FFB
:1016100009280AD8586B1E3C1F27A74020EA07005C
:1016200002FA04F404435C63C9E70E284FF01F007C
:1016300009D89F6B3C3CA04027EA000002FA04F462
:1016400020439863BBE7DF6B5A3CA04027EA0000C9
:1016500002FA04F40443DC63B1E75F69844027EADB
:1016600004040CFA00F004435C61BDE7186E714F8E
:10167000074047EA080040EA0C0040F000401866C6
:10168000986800F0030001284ED11868C4074BD5B4
:101690000020002385F83C3002B0BDE8F081586E90
:1016A000644F074047EA080040EA0C0040F0004061
:1016B0005866E5E7986E5F4C044044EA080040EA4B
:1016C0000C0040F000409866DAE7DC6E5948204094
:1016D00040EA080040EA0C0040F00040D866CFE73E
:1016E000186E00F0F840404502BF186E20F0004030
:1016F0001866586E00F0F840404502BF586E20F062
:1017000000405866986E00F0F840404502BF986E61
:1017100020F000409866D86E00F0F8404045AFD108
:10172000D86E20F00040D9E70120012E00FA02F027
:101730002CD0D3F8B01021EA0000C3F8B000102A72
:1017400047D13D49896811F4000FA1D1996801F092
:101750000301012902D11868C0075DD4102A47D1BE
:10176000B3F1A04F94D1344A936843F400039360DB
:10177000324B334A1B68B3FBF2F20A235343019303
:10178000019B002B84D0019B013BF8E7D3F8B040CC
:10179000092A40EA0400C3F8B0008C680CD902EBB7
:1017A000420198691B3907268E4020EA060004FA98
:1017B00001F101439961C2E70132586902EB42022B
:1017C0000721914020EA010004FA02F10143596126
:1017D0005EE7112A04D11849896811F0807FB4E7C7
:1017E000122A7FF455AF1449896811F4800FACE7D1
:1017F000112A09D1B3F1A04F7FF44AAF0E4A936882
:1018000043F08073936043E7122A7FF441AF0A4AA2
:10181000936843F48003F5E72B6C43F020032B64BB
:10182000084636E72B6C43F020032B64104630E764
:10183000022031E700F0FF83000300501000002079
:1018400040420F00F7B50023019390F83C30046943
:10185000CE68012B00F09481012380F83C304A6867
:10186000036814B18D69012D63D1012A17D10C6A67
:101870000A68012C18BF4D6A4FEA02221CBF2C4394
:101880002243DC6C24F0FB4424F4EF0424F4BF4432
:1018900024F07F041443DC648264002404E0026CBE
:1018A00042F02002026401249A6812070CD48A7F55
:1018B0004D7F0F7F5205002D67D1DD6842EA075248
:1018C00025F440152A43DA609A6812F00C0F40F0B4
:1018D00086800A6A4D7F012ADA6822F0007261D19F
:1018E00042EA4562DA600F68D1F808C0092F07EBB9
:1018F00047054FF0070E5ED99A691E3D0EFA05FEA8
:1019000022EA0E0E0CFA05F54EEA05059D61DA682D
:101910004D69C2F3C102520005FA02F20D69013DA0
:101920004FEA876C032D00F2B880DFE805F04F988E
:10193000A2ACC46C54B90F6AC564012F18BF4C6ABD
:1019400005F1FF351CBF27433D43856406245443FE
:1019500002341F2202FA04F5826C22EA05020D68A5
:1019600005FA04F42243C46C8264013CC464002C74
:1019700093D1DD6C25F0FB4525F4EF0525F4BF453B
:1019800025F07F052A43DA648EE7DD6825F44015EB
:101990002A43012FDA6001BF026C42F02002026488
:1019A0003C4691E7012DDA6001BF026C42F0200253
:1019B00002642C4697E75A690EFA05FE22EA0E0EDB
:1019C0000CFA05F54EEA05055D61A0E71D6E6D4F49
:1019D00042EA0C022F40174347F000471F669A68FF
:1019E00002F00302012A03D11A68D70700F19C8094
:1019F0000A680125012E05FA02F573D0D3F8B0105C
:101A000021EA0505C3F8B050102A40F093805E49E2
:101A1000896811F4000F40F08780996801F0030194
:101A2000012903D11D68ED0700F1A480102A40F0C0
:101A30008F80B3F1A04F77D1534A936843F40003EA
:101A40009360524B524A1B68B3FBF2F20A23534392
:101A50000193019B002B67D0019B013BF8E75F6E70
:101A6000484D42EA0C023D40154345F000455D6695
:101A7000B5E79D6E434F42EA0C022F40174347F0F3
:101A800000479F66ABE7DF6E3E4D42EA0C023D40E9
:101A9000154345F00045DD66A1E71A6E02F0F842F5
:101AA000624502BF1A6E22F000421A665A6E02F0B8
:101AB000F842624502BF5A6E22F000425A669A6EA0
:101AC00002F0F842624502BF9A6E22F000429A6626
:101AD000DA6E02F0F842624502BFDA6E22F000428E
:101AE000DA667CE7D3F8B060092A45EA0605C3F850
:101AF000B0508E680CD902EB42019D691B39072753
:101B00008F4025EA070506FA01F1294399617BE731
:101B100001325D6902EB42020721914025EA01058D
:101B200006FA02F129435961002380F83C3020462F
:101B300003B0F0BD112A04D11349896811F0807FE8
:101B400069E7122AF0D11049896811F4800F62E721
:101B5000112A08D1B3F1A04FE6D10B4A936843F0A4
:101B600080739360E0E7122ADED1074A936843F45A
:101B70008003F6E7036C43F0200303640C46D3E7CD
:101B80000224D4E700F0FF8300030050100000207F
:101B900040420F000749CA6822F4E06203021204BF
:101BA00003F4E063120C134343F0BF6343F40033C8
:101BB000CB60704700ED00E0164B30B5DC68C4F335
:101BC0000224C4F10705231D042D28BF0425062B7C
:101BD0004FF0FF338CBF033C002403FA05F521EAE4
:101BE0000501A34022EA0302A140002841EA0203C2
:101BF000ACBF00F16040084A4FEA0313B8BF00F0E1
:101C00000F00DBB2AABF00F56140135480F8003327
:101C100030BD00BF00ED00E014ED00E0002808DB5F
:101C20004209012300F01F0003FA00F0014B43F8C2
:101C30002200704700E100E00138B0F1807F0AD255
:101C4000064B074A5860F02182F823100020072233
:101C500098601A6070470120704700BF10E000E0F4
:101C600000ED00E010B520B3D0E901342343C4688F
:101C70000168234304690A68234344692343846950
:101C80002343C46922F47F5222F0300223431343DA
:101C90000B60094B14220B44B3FBF2F39B0003646B
:101CA000064BC3634FF4807200238363028418469B
:101CB00010BD0120FCE700BFF8FFFDBF000002409F
:101CC000F0B590F82040012C34D090F82150012438
:101CD000A54280F820404FF000064FF0020427D1C3
:101CE00080F8214004688663266826F00106266095
:101CF000D0E90F67BD40756063604368102BC36A0D
:101D00000BBFA260A160E160E2604BB1236843F0C9
:101D10000E032360236843F0010323600020F0BD1D
:101D2000236843F00A032360236823F00403F0E7E9
:101D300080F820600220F2E7C16B026C036870B487
:101D40000E681D680424944034420ED015F0040F30
:101D50000BD01A6892065EBF1A6822F004021A605D
:101D6000C36A4C6063B370BC184702249440344289
:101D700012D015F0020F0FD01A68950606D41A6813
:101D800022F00A021A60012380F8213000234C60FF
:101D900080F82030836AE5E70824944034420FD06D
:101DA0002C070DD51C6824F00E041C60012303FAD7
:101DB00002F24A6083634FF480730384036BD1E7BC
:101DC00070BC70472DE9F74FDFF86881574C00234E
:101DD0004FF00F090A6832FA03F502D103B0BDE8EB
:101DE000F08F012505FA03FA1AEA020200F0958045
:101DF0004D6825F0100EBEF1020F11D1DF0800EB87
:101E0000870703F0070C3E6A4FEA8C0C09FA0CFBBB
:101E100026EA0B0B0E6906FA0CF646EA0B063E6242
:101E2000D0F800B04FEA430C032606FA0CF72BEA71
:101E3000070BFE4305F0030707FA0CF70EF1FF3E10
:101E400047EA0B07BEF1010F076011D8876806EA61
:101E5000070ECF6807FA0CF747EA0E078760476856
:101E600027EA0A0AC5F300179F4047EA0A074760B6
:101E7000C76837408E6806FA0CF63E43C660EE002F
:101E80004BD5D8F8186046F00106C8F81860D8F8A5
:101E9000186023F0030707F1804706F0010607F5F5
:101EA0008037019603F0030C019EBE684FEA8C0C4C
:101EB00009FA0CFEB0F1904F26EA0E0E2FD01C4E00
:101EC000B0422ED006F58066B0422CD006F5806672
:101ED000B0420CBF0326052606FA0CF646EA0E06AB
:101EE000BE602668D74315F4803F0CBF3E401643C2
:101EF0002660666815F4003F0CBF3E4016436660DE
:101F0000A66815F4801F0CBF3E401643A660E66825
:101F1000AD0254BF3E401643E66001335AE7002647
:101F2000DAE70126D8E70226D6E700BF0004014021
:101F300000040048001002400369194214BF012048
:101F4000002070470AB18161704781627047436920
:101F50000B4218BF09048161704703689A699107B1
:101F600044BF00229A629A69D2075EBF9A6942F022
:101F700001029A617047000030B5039D046845EA8C
:101F800002421A43054B6068C1F3090143EA555305
:101F90000A4320EA03000243626030BDFF63FF038F
:101FA000036870B50446986910F010000D46164697
:101FB00016D170BD691C14D0FFF7FAF8801BA84237
:101FC00000D86DB9636C43F020036364202384F868
:101FD0004130002384F8423084F840300120E8E7A3
:101FE00023689A699206E5D510222025DA612046F9
:101FF000DD61FFF7B2FF2268536823F0FF7323F41B
:102000008B3323F4FF7323F001035360636C43F0BD
:102010000403636484F84150DBE770B504460D4661
:10202000164623689B695B070ED432462946204634
:10203000FFF7B6FFF0B923689A6991061CD59A6933
:10204000520703D5228D0AB1002070BD2021D9612D
:102050005A6822F0FF7222F48B3222F4FF7222F0CF
:1020600001025A600023636484F8411084F842300E
:1020700084F840300120E8E7FFF79AF8801BA84277
:1020800001D8002DCDD1636C43F02003636420237D
:1020900084F841300023EBE770B504460D46164640
:1020A00023689B699B0601D5002070BD32462946F6
:1020B0002046FFF775FF90B9FFF77AF8801BA8421A
:1020C00001D8002DECD1636C43F02003636420231E
:1020D00084F84130002384F8423084F840300120F5
:1020E000E3E72DE9F041069F0446884616461D4663
:1020F0002268936938EA03030CBF01230023B3422B
:1021000001D0002015E06B1CF3D0FFF751F8C01B85
:10211000A84201D8002DEBD1636C43F02003636427
:10212000202384F84130002384F8423084F8403082
:102130000120BDE8F08170B504460D4616462368BF
:102140009B699B0701D5002070BD32462946204679
:10215000FFF726FFA0B96A1CF1D0FFF729F8801B12
:10216000A84201D8002DEAD1636C43F020036364D8
:10217000202384F84130002384F8423084F8403032
:102180000120E1E710B5044600284AD090F841301C
:1021900003F0FF021BB980F8402003F0E9F9242383
:1021A00084F8413023681A6822F001021A606268DC
:1021B00022F070621A619A6822F400429A60D4E9AF
:1021C0000221012924D142F400429A605A6842F067
:1021D000007242F400425A60DA6822F40042DA6087
:1021E000D4E904210A43A16942EA0122DA60D4E970
:1021F00007210A431A601A6842F001021A6000209F
:102200002023606484F84130206384F8420010BDCC
:1022100042F4044202299A6004BF4FF400625A60FB
:10222000D4E70120F3E700002DE9F347984690F842
:1022300041300A9F202B04460E46914640F086808E
:1022400090F84030012B00F081804FF0010A80F8B7
:1022500040A0FEF7ADFF19230546009052464FF40B
:1022600000412046FFF73DFF18B1012002B0BDE854
:10227000F087212384F84130102384F842306064D1
:10228000A4F82A80638DC4F824909BB2FF2B60636E
:102290002F4B26D9FF22228500934FF080733146C1
:1022A0002046FFF769FE638D9BB22A4639462046D9
:1022B000FBB9FFF7F1FE0028D7D123682021D961AF
:1022C0005A6822F0FF7222F48B3222F4FF7222F05D
:1022D00001025A6084F8411084F8400084F84200FA
:1022E000C4E7628D009392B222854FF00073D2B2A0
:1022F000D5E7FFF720FF0028B7D1636A226813F8FB
:10230000011B91626362638D228D013B9BB26385E9
:10231000638D013A92B29BB22285002BC3D0002A72
:10232000C1D100953B4680212046FFF7DAFE002808
:102330009BD1638D9BB2FF2B03D9FF222285009096
:10234000ABE7628D009092B22285CEE702208DE746
:10235000002000802DE9F347984690F841300A9F0D
:10236000202B04460E46914640F0878090F840307E
:10237000012B00F082804FF0010A80F840A0FEF7A8
:1023800017FF19230546009052464FF4004120469E
:10239000FFF7A7FE18B1012002B0BDE8F0872223A5
:1023A00084F84130102384F842306064A4F82A8015
:1023B000638DC4F824909BB2FF2B6063304B26D909
:1023C000FF22228500934FF0807331462046FFF7AD
:1023D000D3FD638D9BB22A4639462046FBB9FFF7F1
:1023E0005BFE0028D7D123682021D9615A6822F0EA
:1023F000FF7222F48B3222F4FF7222F001025A6043
:1024000084F8411084F8400084F84200C4E7628DEB
:10241000009392B222854FF00073D2B2D5E7FFF756
:10242000FCFD0028B7D123685A6A636A1A70636A90
:10243000228D01336362638D013B9BB26385638DA3
:10244000013A92B29BB22285002BC2D0002AC0D1A1
:1024500000953B4680212046FFF743FE00289AD195
:10246000638D9BB2FF2B03D9FF2222850090AAE740
:10247000628D009092B22285CDE702208CE700BFEA
:102480000024008010B590F84130202BDCB21DD123
:1024900090F84030012B19D0242380F84130036894
:1024A0001A6822F001021A601A6822F480521A6037
:1024B0001A68114319601A6842F001021A60002379
:1024C00080F8414080F84030184610BD0220FCE7FB
:1024D00010B590F84130202BDCB21CD190F8403080
:1024E000012B18D0242380F8413003681A6822F0A9
:1024F00001021A601A6822F4706242EA012119602E
:102500001A6842F001021A60002380F8414080F806
:102510004030184610BD0220FCE700002DE9F347CB
:102520000546002835D00368DA0711D42B689B07CD
:1025300000F188802B681C0700F1F8802B68580791
:1025400000F14181E869002840F0D78100204BE08C
:10255000BA4C636803F00C03042B07D0636803F0E4
:102560000C03082B17D16368DF0314D54FF4003335
:1025700093FAA3F2216893FAA3F3B3FA83F303F077
:102580001F03012202FA03F30B42CFD06B68002B2A
:10259000CCD1012028E06A68B2F5803F27D12368BA
:1025A00043F480332360E36AA96823F00F030B43ED
:1025B000E36262B3FEF7FCFD4FF4003706464FF0CE
:1025C000010897FAA7F3226897FAA7F3B3FA83F3FF
:1025D00003F01F0308FA03F31342A7D1FEF7E8FD47
:1025E000831B642BEDD9032002B0BDE8F08723687C
:1025F00032B923F480332360236823F48023D1E7A6
:10260000B2F5A02FF5D143F480232360C7E7FEF78E
:10261000CFFD4FF4003706464FF0010897FAA7F3B5
:10262000226897FAA7F3B3FA83F303F01F0308FABB
:1026300003F313423FF47AAFFEF7BAFD831B642B1A
:10264000ECD9D0E77D4C636813F00C0F07D06368BA
:1026500003F00C03082B21D16368DE031ED4022390
:1026600093FAA3F2216893FAA3F3B3FA83F303F086
:102670001F03012202FA03F30B4202D02B6993429B
:1026800087D12168F82393FAA3F3B3FA83F26B6935
:10269000934021F0F802134323604BE72A69012697
:1026A0000AB396FAA6F3B3FA83F303F1845303F55E
:1026B00084139B004FF002081E60FEF779FD074669
:1026C00098FAA8F3226898FAA8F3B3FA83F303F010
:1026D0001F0306FA03F31342D3D1FEF769FDC31BB0
:1026E000022BEDD97FE796FAA6F3B3FA83F303F151
:1026F000845303F584139B004FF002081A60FEF721
:1027000057FD074698FAA8F3226898FAA8F3B3FA97
:1027100083F303F01F0306FA03F313423FF40AAFF7
:10272000FEF746FDC31B022BECD95CE7AA69434EBA
:10273000434901241AB394FAA4F3B3FA83F30B4484
:102740009B0002271C60FEF733FD804697FAA7F333
:1027500097FAA7F397FAA7F3726A97FAA7F3B3FA6F
:1027600083F303F01F0304FA03F313427FF4E6AE8E
:10277000FEF71EFDA0EB0803022BE7D933E794FA1E
:10278000A4F3B3FA83F30B449B0002271A60FEF70D
:102790000FFD804697FAA7F397FAA7F397FAA7F3E6
:1027A000726A97FAA7F3B3FA83F303F01F0304FAEC
:1027B00003F313423FF4C2AEFEF7FAFCA0EB0803AA
:1027C000022BE7D90FE71D4CE369D90034D4E36944
:1027D00043F08053E361E36903F080530193019B6D
:1027E0000126184F3B68DA052ED5EB68012B3CD14A
:1027F000236A43F001032362FEF7DAFC02278046D6
:10280000BA464FF0010997FAA7F397FAA7F3002BFE
:102810006BD0226A9AFAAAF3B3FA83F303F01F0388
:1028200009FA03F3134257D0002E3FF48BAEE3694D
:1028300023F08053E36185E60026D2E700100240D2
:1028400020819010007000403B6843F480733B602F
:10285000FEF7AEFC80463B68DB05C6D4FEF7A8FC5D
:10286000A0EB08006428F6D9BDE63BBB236A23F041
:1028700001032362236A23F004032362FEF798FC1A
:1028800002278046BA464FF0010997FAA7F397FA54
:10289000A7F373B3226A9AFAAAF3B3FA83F303F0A5
:1028A0001F0309FA03F31342BED0FEF781FC41F285
:1028B0008833A0EB08009842E7D994E6052B236AF9
:1028C00003D143F00403236292E723F00103236260
:1028D000236A23F004038EE7FEF76AFC41F2883393
:1028E000A0EB080098428ED97DE697FAA7F3626ABA
:1028F00090E797FAA7F3626ACDE7494B5A6802F06E
:102900000C02082A1C467AD002284FF0807351D15D
:1029100093FAA3F3B3FA83F303F1845303F5841317
:102920009B0000221A60FEF743FC4FF00078074638
:10293000012698FAA8F3226898FAA8F3B3FA83F369
:1029400003F01F0306FA03F313422DD1D5E9081350
:1029500062680B4322F47412134363604FF0807378
:1029600093FAA3F3B3FA83F303F1845303F58413C7
:102970009B0001271E60FEF71BFC4FF0007605460A
:1029800096FAA6F3226896FAA6F3B3FA83F303F055
:102990001F0307FA03F313427FF4D8ADFEF708FCD8
:1029A000401B0228ECD91EE6FEF702FCC31B022BDB
:1029B000BFD918E693FAA3F3B3FA83F303F1845370
:1029C00003F584139B0000221A60FEF7F1FB4FF021
:1029D00000760546012796FAA6F3226896FAA6F332
:1029E000B3FA83F303F01F0307FA03F313423FF430
:1029F000ADADFEF7DDFB401B0228ECD9F3E5012865
:102A00003FF4F2AD5B682A6A03F4803191427FF4AF
:102A1000C0AD6A6A03F4701393423FF497ADB8E512
:102A20000010024010B5134C616801F00C03082B34
:102A30001ED14FF4701393FAA3F301F47012B3FA9A
:102A400083F322FA03F30C4AD05CE36A0F2292FA72
:102A5000A2F2B2FA82F203F00F03D340074AD25C2B
:102A6000CB034ABF064B074BB3FBF2F3584310BDF1
:102A70000348FCE700100240A08C0008B08C00085E
:102A800000127A0000093D002DE9F0410D46044690
:102A900010B90120BDE8F0814C4A136803F0070328
:102AA0008B422ED32268910736D4D2073CD4474AB2
:102AB000136803F00703AB4274D82268444D12F048
:102AC000040F7BD1130706D56B68226923F460538A
:102AD00043EAC2036B60FFF7A5FF6B68F02292FA2E
:102AE000A2F2B2FA82F203F0F003D340394AD35C87
:102AF000D840394B1860394B1868FEF717FB002097
:102B0000C8E7136823F007030B431360136803F04F
:102B100007038B42BDD1C5E72D49A0684B6823F060
:102B2000F00303434B60C0E76268294E012A26D1B7
:102B30004FF4003393FAA3F1316893FAA3F3B3FA95
:102B400083F303F01F0302FA03F30B42A1D073686F
:102B500023F003031A437260FEF72AFB41F2883820
:102B600007467368626803F00C03B3EB820F9ED0D4
:102B7000FEF71EFBC01B4045F3D903208AE7022A5B
:102B80000CBF4FF00073022393FAA3F1306893FA5D
:102B9000A3F3B3FA83F303F01F03012101FA03F354
:102BA0000342D3E7136823F007032B431360136832
:102BB00003F00703AB427FF46CAF7EE76B68E1681C
:102BC00023F4E0630B436B607CE700BF002002400E
:102BD000001002400B8E00081000002008000020AA
:102BE000084B4FF4E0625B6892FAA2F2B2FA82F20A
:102BF00003F4E063D340044AD35C044A1068D8402D
:102C0000704700BF001002401B8E0008100000201B
:102C100003682DE9F347DD03044621D56E4DEB69CA
:102C2000D8007DD4EB6943F08053EB61EB6903F08E
:102C300080530193019B0126684F3B68D90571D5EC
:102C40002B6A13F4407340F081802B6A626823F48E
:102C5000407313432B621EB1EB6923F08053EB6189
:102C60002368D80706D55C49A0680A6B22F00302E6
:102C700002430A63990606D55749E0680A6B22F0B9
:102C8000100202430A635A0606D5534920690A6BAB
:102C900022F0200202430A631F0406D54E496069F0
:102CA0000A6B22F0400202430A639E0506D54A4998
:102CB000E0694A6822F4000202434A601D0606D514
:102CC0004549A069CA6A22F4F8720243CA62D8046C
:102CD00006D54149206A0A6B22F4807202430A63D6
:102CE000590306D53C49606A0A6B22F480620243AC
:102CF0000A631A0306D53849A06A0A6B22F40062F7
:102D000002430A6313F480131FBF334AE16A136B53
:102D100023F400531DBF0B4313630020184612E039
:102D2000002689E73B6843F480733B60FEF740FA76
:102D300080463B68DA0583D4FEF73AFAA0EB080038
:102D40006428F6D9032002B0BDE8F087626802F477
:102D500040729A423FF479AF296A4FF4803321F4EC
:102D6000407093FAA3F2DFF878C0B2FA82F26244BC
:102D700092000127176093FAA3F3B3FA83F3634435
:102D80009B0000221A60CB0728627FF55EAFFEF73A
:102D90000FFA4FF002088146C24698FAA8F398FA53
:102DA000A8F3A3B12A6A9AFAAAF3B3FA83F303F059
:102DB0001F0307FA03F313427FF447AFFEF7F8F956
:102DC00041F28833A0EB09009842E6D9BAE798FAB5
:102DD000A8F36A6AE7E700BF0010024000700040F5
:102DE00000819010036A23F001030362036A70B547
:102DF000446882690D6822F4803222F073022A430B
:102E00008D6823F002032B43174DA8420BD005F524
:102E1000A055A84207D005F58065A84203D005F566
:102E20008065A8421AD1CD6823F008032B430E4DCC
:102E3000A84223F004030BD005F5A055A84207D003
:102E400005F58065A84203D005F58065A84205D147
:102E500024F44075D1E9054634432C434460826133
:102E60004A684263036270BD002C0140036A23F488
:102E700080730362036A426870B5C4690D6824F404
:102E8000803424F073042C438D6823F4007343EAE8
:102E90000523114DA8420ED1CD6823F4006343EA07
:102EA000052323F48063D1E9055622F440523543CB
:102EB00042EA051209E0094DA842F4D0084DA842A3
:102EC000F1D005F58065A842EDD042604A68C46142
:102ED000C263036270BD00BF002C0140004001408E
:102EE00000440140036A23F480530362026A30B550
:102EF0004468C3690D6823F0807323F4E64343EA12
:102F000005238D6822F4005242EA05320C4DA84296
:102F10000BD005F5A055A84207D005F58065A8425D
:102F200003D005F58065A84204D14D6924F480449E
:102F300044EA85144460C3614B680364026230BD97
:102F4000002C0140036A23F480330362026A30B527
:102F50004468436D0D6823F4803323F070032B43E2
:102F60008D6822F4003242EA05420D4DA8420BD092
:102F700005F5A055A84207D005F58065A84203D005
:102F800005F58065A84204D14D6924F4803444EAF3
:102F90000524446043654B688365026230BD00BF11
:102FA000002C0140036A23F480130362026A30B5E7
:102FB0004468436D0D6823F0807323F4E04343EAD3
:102FC00005238D6822F4001242EA05520C4DA842F6
:102FD0000BD005F5A055A84207D005F58065A8429D
:102FE00003D005F58065A84204D14D6924F48024FE
:102FF00044EA8524446043654B68C365026230BD82
:10300000002C01400368DA6842F00102DA60996836
:10301000064A0A40062A06D0B2F5803F1EBF1A684B
:1030200042F001021A600020704700BF0700010053
:103030007047704770477047704703681A69910777
:1030400010B504460FD5DA6892070CD56FF002026E
:103050001A61012202779B69990700F08580FFF7CA
:10306000E9FF0023237723681A69520710D5DA682D
:1030700050070DD56FF004021A61022222779B6976
:1030800013F4407F204675D0FFF7D4FF0023237749
:1030900023681A6911070FD5DA6812070CD56FF08B
:1030A00008021A6104222277DB699B07204667D059
:1030B000FFF7C0FF0023237723681A69D00610D5D5
:1030C000DA68D1060DD56FF010021A610822227756
:1030D000DB6913F4407F204658D0FFF7ABFF002395
:1030E000237723681A69D20708D5DA68D00705D58F
:1030F0006FF001021A61204602F096F923681A69FE
:10310000110608D5DA68120605D56FF080021A613B
:10311000204600F0F2FA23681A69D00508D5DA686B
:10312000110605D56FF480721A61204600F0E6FAA8
:1031300023681A69520608D5DA68500605D56FF07B
:1031400040021A612046FFF777FF23681A6991064B
:1031500022D5DA6892061FD56FF0200220461A6148
:10316000BDE8104000F0C8BAFFF763FF2046FFF744
:1031700062FF76E7FFF75DFF2046FFF75CFF85E71C
:10318000FFF757FF2046FFF756FF93E7FFF751FF82
:103190002046FFF750FFA2E710BD00001E4A03685B
:1031A000904210B502D0B0F1804F09D14C6823F0A5
:1031B0007003904243EA04030DD0B0F1804F0AD06F
:1031C000164A904207D002F58062904203D002F581
:1031D0008062904203D1CA6823F4407313434A6962
:1031E00023F08003134303608B68C3620B68836220
:1031F000094B98420BD003F5A053984207D003F532
:103200008063984203D003F58063984201D10B6933
:1032100003630123436110BD002C014000400140C5
:1032200010B50446A0B190F83D3003F0FF021BB981
:1032300080F83C2002F0D2F90223206884F83D3067
:10324000211DFFF7ABFF012384F83D30002010BDA6
:103250000120FCE710B50446A0B190F83D3003F022
:10326000FF021BB980F83C20FFF7E2FE0223206832
:1032700084F83D30211DFFF791FF012384F83D3094
:10328000002010BD0120FCE7036A23F01003036255
:10329000036A426870B584690D6824F0807424F470
:1032A000E64444EA05248D6823F0200343EA05132D
:1032B000104DA8420ED1CD6823F0800343EA0513D8
:1032C00023F04003D1E9055622F44062354342EA37
:1032D000850209E0084DA842F4D0084DA842F1D07B
:1032E00005F58065A842EDD042604A68846182633A
:1032F000036270BD002C01400040014000440140C9
:1033000038B590F83C30012B04464FF0020012D043
:1033100001230C2A84F83C3084F83D0054D00BD8AB
:10332000042A2FD0082A3ED0DAB10123002084F8E5
:103330003D3084F83C0038BD102A56D0142AF4D110
:103340002068FFF72FFE236809695A6D42F4006276
:103350005A655A6D22F480625A655A6D42EA01221A
:1033600052E02068FFF73EFD236809699A6942F040
:1033700008029A619A6922F004029A619A690A43E2
:103380009A61D2E72068FFF77FFF236809699A698D
:1033900042F400629A619A6922F480629A619A69A1
:1033A00042EA0122ECE72068FFF760FD2368096923
:1033B000DA6942F00802DA61DA6922F00402DA61BD
:1033C000DA690A43DA61B0E72068FFF78BFD23680A
:1033D0000969DA6942F40062DA61DA6922F480622A
:1033E000DA61DA6942EA0122ECE72068FFF7AAFD18
:1033F000236809695A6D42F008025A655A6D22F035
:1034000004025A655A6D0A435A658EE710B58468FE
:10341000114324F47F4441EA03232343836010BD16
:1034200070B590F83C30012B04464FF0020025D0D7
:1034300084F83D000123206884F83C308268414BC9
:10344000134083600B68602B4DD032D8402B62D084
:1034500015D8202B03D009D833F0100208D1826888
:1034600022F07002134343F0070320E0302BF6D024
:103470000123002084F83D3084F83C0070BD502BBF
:10348000F6D14A68CE68016A056A25F00105056231
:10349000836921F00A0123F0F00343EA06130A438B
:1034A00083610262836823F0700343F057038360F3
:1034B000DEE7702B0CD0B3F5005FD9D1CB68D1E932
:1034C0000121FFF7A3FF2268936843F4804308E0DB
:1034D000CB68D1E90121FFF799FF2268936843F097
:1034E00077039360C4E74D68CE68016A21F010014C
:1034F00001628269036A22F4704223F0A00343EA66
:10350000051342EA063282610362836823F0700386
:1035100043F06703CBE74A68CE68016A056A25F085
:1035200001050562836921F00A0123F0F00343EAF3
:1035300006130A4383610262836823F0700343F039
:103540004703B4E78800FEFF036A01F01F0110B5CE
:1035500001248C4023EA04030362036A8A401A436D
:10356000026210BD10B5044601220068FFF7ECFFAF
:103570002368104A93420BD002F5A052934207D021
:1035800002F58062934203D002F58062934203D138
:103590005A6C42F400425A649968074A0A40062A63
:1035A00006D0B2F5803F1EBF1A6842F001021A60D1
:1035B000002010BD002C014007000100FFF7D2BF22
:1035C000036A01F01F0110B504248C4023EA0403B0
:1035D0000362036A8A401A43026210BD10B50446B2
:1035E00004220068FFF7ECFF23685A6C42F40042A3
:1035F0005A649968064A0A40062A06D0B2F5803F06
:103600001EBF1A6842F001021A60002010BD00BF00
:1036100007000100FFF7E2BF70B590F83C30012BC6
:103620004FF0020323D00268124D80F83D305368FA
:103630009468AA4202BF4E6823F4700333430E68B5
:1036400023F070033343AA42536005D0B2F1804F98
:1036500002D0094B9A4204D1896824F080030B43BD
:103660009360012380F83D30002380F83C301846F9
:1036700070BD00BF002C01400040014010B590F823
:103680003C30012B34D0CB688A681A4C23F4407349
:1036900013434A6823F4806313430A6823F40063E6
:1036A00013430A6923F4805313434A6923F40053F4
:1036B00013438A6A23F4804313438A6923F47023F3
:1036C00043EA02430268A2420CD14C6A23F470031D
:1036D00043EA0453CC69096A23F08073234323F03F
:1036E00000730B435364002380F83C30184610BD30
:1036F0000220FCE7002C01407047704770470177BB
:10370000704741727047704770477047002070479C
:1037100080F84410704762B6704772B6704702294D
:1037200010B508DC00EB81019DF8080040EA032396
:1037300043EA02434B6010BD03681847012A03D0D7
:10374000022A03D0002070470160FBE70B6803608A
:10375000F8E7036808681847012A03D0022A03D053
:10376000002070470160FBE70B680360F8E700008A
:10377000B5EEC00AF1EE10FA036902D500221A6014
:103780007047F7EE007AB4EEE70AF1EE10FA02DBCA
:103790004FF47A72F3E7DFED047A20EE270ABCEEED
:1037A000C00A83ED000A704700007A4403690022D2
:1037B0001A60704703694FF47A721A60704700000C
:1037C0000369DFED047A93ED000AB8EE400A80EE5B
:1037D000270A704700007A44D0E901310C2919D03A
:1037E00007D8042910D0082911D049B1C268184659
:1037F0001047102911D01429F8D11A685C3201E061
:103800001A6834320261F1E71A683832FAE71A6846
:103810003C32F7E71A684032F4E71A685832F1E7A9
:10382000018940680122FEF78DBB018940680022B2
:10383000FEF788BB01894068FEF789BB0146014855
:1038400002F090B9DC0300201FB58DF80D300A237B
:1038500000938DF80C20022303AA4068FEF7E4FCD5
:1038600005B05DF804FB1FB50A2300938DF80F2007
:1038700001230DF10F024068FEF7D6FC05B05DF89C
:1038800004FB1FB58DF80C208DF80E301A120A2398
:1038900000938DF80D20032303AA4068FEF7C4FCB3
:1038A00005B05DF804FB30B585B00A2504460095E7
:1038B0008DF80F2001230DF10F0240680291FEF7F1
:1038C000B3FC029960680095012304F10802FEF739
:1038D00041FD207A05B030BDF0B585B00A27044619
:1038E00000971D468DF80F2004F108060DF10F0218
:1038F000012340680291FEF797FC029960680097E7
:10390000ABB23246FEF726FD304605B0F0BD018968
:10391000406808B5FEF710FB003818BF012008BD4D
:103920000346084603B11847704713B50446FCF731
:103930009FFCCDE9000402AB13E9030002F00EF88E
:10394000431E5842584102B010BD000010B5044655
:103950000448FFF76FFF2046FFF7E7FF024B83F8AD
:10396000440010BD740300201010002008B5FFF7BC
:10397000DCFF024B83F8740008BD00BF9C100020E0
:1039800008B5FFF7D2FF024B83F8280008BD00BF3F
:103990009C1000200B7F70B505460C4683B149682A
:1039A000227A4868097A03681E690623B0470388AB
:1039B0005BBA638143885BBAA38183885BBAE38186
:1039C00054F80A3F2B60A388AB80284670BDF0B541
:1039D000037F8BB0044604AE00F110075BB997E893
:1039E000070086E807009DED040ADDED050A9DED60
:1039F000061A0BB0F0BD07AD01462846FFF7CAFF17
:103A0000B4F90A20637F94ED126A06EE902AB4F9A5
:103A10000C2007EE102AB4F90E20F8EEE66A07EE45
:103A2000902A002B4CD0D4ED085A76EEE56AB8EE19
:103A3000C77A66EE866AF8EEE77AC4ED046AD4EDDA
:103A4000096A37EE667A27EE067A84ED057A94EDF8
:103A50000A7A77EEC77A67EE867A0023C4ED067A93
:103A6000D4ED117AF5EE407AF1EE10FA23D1D4EDCF
:103A7000047A94ED0B7AF0EEE77AF4EEC77AD4ED9F
:103A8000057A94ED0C7AF0EEE77AF1EE10FAF4EEA6
:103A9000C77AD4ED067A94ED0D7A48BF2361F0EE33
:103AA000E77AF1EE10FAF4EEC77A48BF6361F1EEFF
:103AB00010FA48BFA36197E8070085E8070090E780
:103AC000B8EEC77A66EE866A27EE067AF8EEE77AEF
:103AD000C4ED046A84ED057ABDE7F0B5037F8BB0D1
:103AE000044604AE00F110075BB997E8070086E8CA
:103AF00007009DED040ADDED050A9DED061A0BB0E9
:103B0000F0BD07AD01462846FFF744FFB4F90C307D
:103B100094ED086A07EE103AB4F90E3007EE903AC9
:103B2000B4F90A3006EE903AB8EEC77AF8EEE77AC2
:103B3000F8EEE66A27EE067A67EE867A66EE866A21
:103B400084ED057AC4ED046AC4ED067A97E80700AF
:103B500085E80700CBE710B50446006803681B69D9
:103B6000984760680368BDE810401B691847836880
:103B700010B5044613B1032201469847204610BDF4
:103B800010B5064B044640F81C3BFFF7F0FF04F16C
:103B90000C00FFF7ECFF204610BD00BFDC8D0008D5
:103BA00070B5044600F5927500F16406AE4205D08A
:103BB000183D05F10800FFF7DAFFF7E7204670BD72
:103BC000436810B40A461968CC68017A184623463F
:103BD0005DF8044B184738B504464068217A0368FD
:103BE000D022DB689847602840F0D28089212046A7
:103BF000FFF7E6FF882105462046FFF7E1FF00EBCF
:103C0000052060818B212046FFF7DAFF8A210546D7
:103C10002046FFF7D5FF00EB0520A0818D2120462F
:103C2000FFF7CEFF8C2105462046FFF7C9FF00EBCA
:103C30000520E0818F212046FFF7C2FF8E21054637
:103C40002046FFF7BDFF00EB052020829121204692
:103C5000FFF7B6FF902105462046FFF7B1FF00EBC6
:103C60000520608293212046FFF7AAFF9221054696
:103C70002046FFF7A5FF00EB0520A08295212046F6
:103C8000FFF79EFF942105462046FFF799FF00EBC2
:103C90000520E08297212046FFF792FF96210546F6
:103CA0002046FFF78DFF00EB052020839921204659
:103CB000FFF786FF982105462046FFF781FF00EBBE
:103CC000052060839B212046FFF77AFF9A21054655
:103CD0002046FFF775FF00EB0520A0839D212046BD
:103CE000FFF76EFF9C2105462046FFF769FF00EBBA
:103CF0000520E0839F212046FFF762FF9E210546B5
:103D00002046FFF75DFF00EB05202084A12120461F
:103D1000FFF756FFE22184F822002046FFF750FF0C
:103D2000E12105462046FFF74BFF00EB0520A0846C
:103D3000E3212046FFF744FFE42184F826002046D3
:103D4000FFF73EFFE52105462046FFF739FF00F06B
:103D50000F0303EB05102085E6212046FFF730FF17
:103D6000E52105462046FFF72BFF031103EB051065
:103D70006085E7212046FFF723FF84F82C00606868
:103D8000217A0368F4221D68BF23A847012038BDAB
:103D90000020FCE770B505460E460024315D21B1D8
:103DA0002868FFF7BDFD0134F8E7204670BD00002C
:103DB00008B502490248FFF7EDFF08BDC08C0008B6
:103DC0008C02002038B5044610EE100AFCF7BCFB4C
:103DD000251D02460B462846034902F0CDFF294621
:103DE0002046FFF7D7FF38BDC58C0008F8B51D4C3D
:103DF0001D4F1E4904F14C052846FFF7CBFF97EDF8
:103E00000E0A2846FFF7DEFFE06C2021FFF788FD51
:103E1000D7ED107A1649FCEEE77A04F1500617EE5A
:103E2000903A30469AB202F0A7FF31462846FFF793
:103E3000B1FFE06C2021FFF773FDD7ED0F7A0D493C
:103E4000FCEEE77A304617EE902A02F095FF3146F5
:103E50002846FFF79FFFE06C0A21BDE8F840FFF716
:103E60005FBD00BF4002002010100020CA8C000877
:103E7000CD8C0008D08C000830B51A4C1A492DEDB5
:103E8000028B04F14C0585B02846FFF783FF174BE2
:103E900093E8070004AB03E9070028469DED010AFB
:103EA000DDED028A9DED038AFFF78CFFE06C202197
:103EB000FFF736FDB0EE680A2846FFF783FFE06C97
:103EC0002021FFF72DFD2846B0EE480AFFF77AFFC4
:103ED000E06C0A2105B0BDEC028BBDE83040FFF775
:103EE0001FBD00BF40020020D48C00080411002038
:103EF00030B51A4C1A492DED028B04F14C0585B0F2
:103F00002846FFF747FF174B93E8070004AB03E988
:103F1000070028469DED010ADDED028A9DED038A2A
:103F2000FFF750FFE06C2021FFF7FAFCB0EE680AC3
:103F30002846FFF747FFE06C2021FFF7F1FC2846F9
:103F4000B0EE480AFFF73EFFE06C0A2105B0BDEC79
:103F5000028BBDE83040FFF7E3BC00BF4002002009
:103F6000D88C0008B8100020134602689A4210B599
:103F700007D94468D21AE018FCF72AF908B1001BE7
:103F800010BD4FF0FF30FBE770B51E460B689A423C
:103F900003D90649064801F0DCFE496811449A1A23
:103FA000B24294BF02600660416070BDDC8C0008C4
:103FB000F68C00082DE9F0478EB06D46044685E882
:103FC0000600284600222021FFF7CEFF804695E814
:103FD000030001F0C3FC02AF4FF0FF33064608F1C7
:103FE000010229463846FFF7CFFF97E8030004ADEA
:103FF00085E80300002220212846FFF7B5FF81460F
:1040000095E8030001F0AAFC0DF118084FF0FF330A
:10401000074609F1010229464046FFF7B5FF98E837
:10402000030008AD85E80300002220212846FFF7A1
:104030009BFF824695E8030001F090FC0DF12809F2
:1040400080460AF10102294648464FF0FF33FFF748
:104050009BFF99E803000CAB83E8030001F07EFCB2
:10406000C4E900082046C4E902760EB0BDE8F08736
:10407000826810B50AB901F088FEBDE81040C36837
:10408000184700002DE9F041564F574E3B78BFF3DB
:104090005B8F13F0010F04460D4609D1384601F03D
:1040A00046FE28B1236B38461B04336001F04BFEFB
:1040B0004E4FDFF83C813B78BFF35B8F13F0010F6D
:1040C00009D1384601F033FE28B1236BC8F800301F
:1040D000384601F038FE17230122E16AD8F80000C3
:1040E000886102FA03F1294249D100BF00BF00BF35
:1040F00000BF00BF00BF00BF00BF00BF00BF00BFC8
:1041000000BF00BF00BF00BF00BF00BF00BF00BFB7
:1041100000BFE16A3068886100BF00BF00BF00BF18
:1041200000BF00BF00BF00BF00BF00BF00BF00BF97
:1041300000BF00BF00BF00BF00BF00BF00BF00BF87
:1041400000BF00BF00BF00BF00BF00BF00BF00BF77
:1041500000BF00BF00BF00BF00BF00BF00BF00BF67
:1041600000BF00BF00BF00BF00BF00BF00BF00BF57
:1041700000BF00BF00BF013BAFD2BDE8F08100BF70
:1041800000BF00BF00BF00BF00BF00BF00BF00BF37
:1041900000BF00BF00BF00BF00BF00BF00BF00BF27
:1041A00000BF00BF00BF00BF00BF00BF00BF00BF17
:1041B00000BF00BF00BF00BF00BF00BF00BF00BF07
:1041C00000BF00BF00BF00BF00BF00BF00BF00BFF7
:1041D00000BF00BF00BF00BF00BF00BFE16A306882
:1041E0008861BAE7080200200C02002000020020CB
:1041F0000402002013B50022018E0446C06AFDF7B8
:10420000A1FE00230193019BB3F5FA6F02D2019B3B
:104210000133F7E704F11C00FFF72AFF616820462D
:10422000FFF730FFA1682046FFF72CFF04F10C00D8
:10423000FFF71EFF218EE06A012202B0BDE81040A8
:10424000FDF780BE10B588B00446FCF711F8224691
:10425000CDE90204014604A8FFF7ACFE9DF810303A
:104260009DF818200799009306489DF81430FFF731
:1042700056FA0448FFF7BEFF0248FFF7BBFF08B03D
:1042800010BD00BF1811002070B51A4C1A4D04F172
:104290000800FFF760FC04F11C00184CFFF75BFC02
:1042A000284601F0F3FB20464C3401F05FFB20462A
:1042B00001F088FB124801F08BFB124BC5F8303C33
:1042C000114D0122298EE86AFDF73CFE00262846A2
:1042D000C5E90166FFF78EFF0C48FFF77CFC32460C
:1042E00003210B4801F0D6FA0A492046FFF752FD98
:1042F00070BD00BF10020020DC030020400200203F
:104300003D380008795900081811002010100020CD
:104310009C100020278D000813B50B460246D0E9FB
:1043200000016C4684E8030093E8030082E8030080
:1043300094E8030083E8030002B010BD38B50446DA
:10434000084621601546FBF793FF00236060236158
:10435000284604F10801FFF7DFFFAB682269AA6075
:1043600023616269EB686361EA60204638BD000042
:104370002DE9F04FDFF8C493B84BC9F80030B84BC3
:10438000C9F80430B74BB84D1D604FF090484FF45A
:104390000062C3F804801A81B44BDFF8A4A3B44AC6
:1043A000B449D1B04FF48077C3E900581F81B24BB4
:1043B0002093B24B2293CDE91E3253462392B04A4A
:1043C00043F8042B002420AECAF80440C9E9024493
:1043D000A9F810401C915C600AF10C01CAF8144065
:1043E0003046FFF799FF229BDAF81420CAF8143000
:1043F000239B22920AF11C01DAF81820CAF8244003
:10440000CAF818301CA82392FFF786FF1E9BDAF823
:104410002420CAF824301F9B1E92DAF828201F920D
:10442000CAE90A384FF02008CAF830801CA8FFF704
:104430009EFB3046FFF79BFB924A9349934F5046B1
:1044400001F070FC924B934A83F84440C3E9002981
:10445000EC221A72904A1A63904B914ADFED917ADE
:10446000DFF8E0E2C3ED077AC3E90029D0221A8120
:104470008D4ADA6040F23B6141F24332C3E90524E0
:10448000C3E918144FF07E528849C3ED087AC3ED92
:10449000097AC3ED147AC3ED1A7AC3ED1B7AC3ED22
:1044A0001C7ADFF8A4C282485A6599659A678149E7
:1044B0001B611C85DB6583F874407F4B7F4ACEF817
:1044C00000304FF0040ACEF80410CEF80C20CEF8DD
:1044D00008A0CCE90031C0E900317949DFF86C92DD
:1044E0000B60784BC9F80050C1E90134764BCB60C2
:1044F0004FF40043A9F80830744B4FF0080BC3E9A0
:1045000000794FF48077C3E902ECCCE902B2C3E949
:104510000701DFF83CC21F83C0E902429F856C4A55
:104520006C4F6D48C3ED047AC3ED057AC3ED097A8B
:10453000C3ED0A7A6949ACF808A04023CCE90052DF
:10454000C7E90052C9F80420A7F80880C0E9005262
:10455000038180230B81624BC1E900520122C3E930
:1045600000C79A60C3E90644DC601C619C821C841D
:104570005C625C4B5C4F9A60C3E90001C3E906448E
:104580005A49DC601C619C821C845C624FF461327D
:104590005748584D01F022FA574B58491C931CAA12
:1045A00030461F971E95FFF7C9FE554B5549189386
:1045B00018AA26A8CDE91A57FFF7C0FE524B534957
:1045C000149314AA2CA8CDE91657FFF7B7FE504B49
:1045D0005049109310AA32A8CDE91257FFF7AEFE4A
:1045E0004D4B4E490C930CAA38A8CDE90E57FFF756
:1045F000A5FE4B4B4B4908930DEB08023EA8CDE9B5
:104600000A57FFF79BFE484B4849049304AA44A865
:10461000CDE90657FFF792FECDE90257444D454BD1
:10462000454900936A464AA8FFF788FE05F114023F
:10463000C5E91444104B0F492A603222AC606A600D
:10464000EC6085F848402C61EC64A5F85840EB65B7
:10465000296622AFD846A9467CE000BFB48D000889
:1046600050120020680300209C8D00087403002075
:10467000393700081B370008173700083D37000896
:10468000DC8D000800000020813B00080C000020A9
:1046900010100020D08D0008A470B5C09C10002020
:1046A000788D000800000000688D0008588D000813
:1046B000A803002070130020EC8D000815360008B8
:1046C000BC0300209C120020BD3500081002002011
:1046D0000004004878100020841000209010002072
:1046E0004C1100207411002053370008003801409D
:1046F000DC03002059370008793E0008338D00089C
:10470000F13E0008378D0008ED3D00083B8D0008A4
:104710006D3900083E8D000881390008418D000880
:104720004D390008448D000845420008468D0008B8
:1047300040020020B13D0008498D000858100020BB
:10474000181100208003002094030020D0030020D3
:104750006C10002057F8083C6B6657F8043CAB66B9
:10476000BB686C6743B10222394605F16C0098477B
:10477000FB68AB67BB686B67B8F1010805F118050A
:1047800007F11807E6D189F8248150AC183C04F1F0
:104790000800FFF7ECF9B442F8D16846FFF7E7F9F3
:1047A00004A8FFF7E4F908A8FFF7E1F90CA8FFF760
:1047B000DEF910A8FFF7DBF914A8FFF7D8F918A85D
:1047C000FFF7D5F91CA8FFF7D2F9044A04490548B8
:1047D00001F0A8FA51B0BDE8F08F00BF0000002042
:1047E000A13B000840020020FFF7C2BD30B51025F4
:1047F0009DB02A46002109A801F0F4FB14220021F3
:1048000001A801F0EFFB0021302210A801F0EAFB23
:104810004FF480330322CDE906230122CDE90A2596
:1048200002250024CDE90D5306A84FF4E0130F93A1
:104830000894FDF773FE0F23CDE9013529464FF4A7
:10484000806301A8CDE904340394FEF71DF9064BFB
:10485000109310A84FF48073CDE918441394169365
:10486000FEF7D6F91DB030BDA01004002DE9804838
:10487000D04DD14EA1B0FCF77DFCFFF7B7FF14225D
:10488000002115A801F0AEFB6B69CC4843F400236E
:104890006B616B6903F400230293029B6B6943F421
:1048A00080036B616B6903F480030393039B6B6963
:1048B00043F400336B616B6903F400330493049B8E
:1048C0006B6943F480236B616B6903F48023059368
:1048D000059B6B6943F480136B616B6903F4801370
:1048E000069300224FF48041069BFDF72BFB00222C
:1048F0004FF412614FF09040FDF724FB0022B048C6
:104900004FF4A0510024FDF71DFB4BF2D033AB4810
:10491000179415A90127CDE91534FDF753FA4FF483
:104920008043A64815A9CDE91537CDE91744FDF711
:1049300049FA4FF4126315A94FF09040CDE91537AD
:10494000CDE91744FDF73EFA48F6E4039C48179476
:1049500015A9CDE91534FDF735FA4FF4A053984861
:1049600015A9CDE91537CDE91744FDF72BFA4FF41A
:10497000104315A94FF090404FF00409CDE91534CC
:104980001794FDF71FFA8F48179415A9CDE91594D0
:10499000FDF718FA6B693B436B616B693B4022463C
:1049A000214601930B20019BFDF706F90B20FDF733
:1049B00035F9182221460EA801F014FB28222146C1
:1049C00015A801F00FFB4FF0A043C6E900344FF4E7
:1049D00080734FF0080833834FF00B0B30464FF0D5
:1049E000060AC6F81CB0C6F81480C6E90A74C6E9FF
:1049F000024486F8204086F8304037617463FCF743
:104A000075FC0EA93046CDE90E97CDF840A0CDE952
:104A100012441194FCF7B0FD032202230EA9304684
:104A2000CDE90E23FCF7A8FD03230221CDE90E13E7
:104A300030460EA9FCF7A0FD0EA93046CDE90E794F
:104A4000FCF79AFD052209230EA93046CDE90E3266
:104A5000FCF792FD0EA93046CDE90E8AFCF78CFDDD
:104A600007230EA93046CDE90E33FCF785FD0EA9CC
:104A70003046CDE90EA8FCF77FFD052209230EA9DB
:104A80003046CDE90E23FCF777FD0A230EA9304608
:104A9000CDE90E33FCF770FD0F230EA93046CDE9AA
:104AA0000E3BFCF769FD15A93046CDE91D74CDE933
:104AB0001577CDE91744CDE919441B97ADF870403F
:104AC0008DF87240FCF7BEFE102221460AA801F0C4
:104AD00089FA1C2221460EA8CDE90744099401F069
:104AE00081FA2C22214615A801F07CFA364E37486F
:104AF000B46040F2CF23C6E900034FF47A73304626
:104B0000C6E903344FF4805AC6E90544FEF788FB32
:104B10000AA93046CDF828A0FEF782FC3046FEF701
:104B200099FB07A930464FF0600BCDE90744099483
:104B3000FEF772FD22460EA93046CDE90EB4CDE94E
:104B40001044CDE912441494FEF7DAFB4A460EA94C
:104B50003046FEF7D5FB42460EA93046FEF7D0FBA5
:104B60004FF400584FF0007215A93046CDE91D24CE
:104B7000CDE91A84CDE91544CDE9174419941C9464
:104B80001F94FEF77BFD3046114E00F067FDDFF805
:104B900048C0104A34623046C6E900C2C6E902473E
:104BA000C6E90444C6E90644FDF7ECFA214630465E
:104BB00014E000BF00100240DC1200200008004892
:104BC00000040048000C004870130020002C014035
:104BD000501200200E09002000540040FDF752FC46
:104BE00021463046FDF774FC102221460AA801F048
:104BF000F9F91C2221460EA8CDE90744099401F0D9
:104C0000F1F921462C2215A8544E01F0EBF9544A33
:104C1000B46040F2CF23C6E9002330464FF47A73E4
:104C2000C6E90334C6E90544FEF7FAFA0AA9304694
:104C3000CDF828A0FEF7F4FB3046FEF70BFB07A9E2
:104C4000304607940994FEF7E7FC22460EA9304649
:104C5000CDE90EB4CDE91044CDE912441494FEF729
:104C60004FFB15A93046CDE91948CDE91544CDE9EA
:104C700017441B941F94FEF701FD304600F0EEFC34
:104C8000384E1022214615A801F0ACF94FF0804EA5
:104C90004723C6E900E330466323C6E90334CDE980
:104CA0000E441094B460B461FEF7BAFA15A9304608
:104CB000CDF854A0FEF7B4FB0EA930460E94109424
:104CC000FEF7AAFC6B69284843F480236B616B698B
:104CD000179403F480230793079B4FF018080223CF
:104CE000CDE9158315A907234FF00309CDE91893E2
:104CF000FDF768F86B6943F400336B616B691794D7
:104D000003F400330A930A9B4FF4C06A0223CDE9EF
:104D100015A315A907234FF090404FF0030BCDE9E1
:104D200018B3FDF74FF86B69104843F400236B612B
:104D30006B69179403F400230E934FF440620E9BAB
:104D40000223CDE9152303210723CDE9181315A963
:104D5000FDF738F800F03EF9FEE700BF9C12002096
:104D600000400140B0130020000400480008004843
:104D7000704738B590F844300446002B46D0406860
:104D8000217A0368FD221D690223A8470188B4F92E
:104D90002830626B49BA1B0589B2C3EB8131B4F983
:104DA0002A30A2F5963202FB131303F58043D91380
:104DB00094F826305343DB1203F5004094F92C306D
:104DC00053439B1243439B1203F50012B4F9243062
:104DD000534303F500539B134B43DA1394F822100B
:104DE0005243D2114A43A3EB221323EAE373B3F1F4
:104DF000C85FA8BF4FF0C8531B1307EE903AFAEEF6
:104E0000CB7AC4ED107A94ED100A38BD0023036408
:104E1000F9E700002DE9F84390F844300446002BF0
:104E200000F0CC804068217A0368F7221D690323D3
:104E3000A847636BB4F91260B3F5FA334FF0000280
:104E400042F1FF32A3FB038903FB02F109EB4109A5
:104E5000F71706FB02F103FB0711A6FB03670F44DC
:104E6000390341EA165105463003B4F91460F717C7
:104E700006FB09FC08FB07CCA6FB086767444FEA62
:104E8000162C4CEA076C268A4FEA272E1CEB0000F2
:104E90004EEB010E00304EF5004EA0FB060106FB66
:104EA0000E114E10CF1756EA070100F08B80B4F9AF
:104EB0001A0000FB09FCC11708FB01CCA0FB08018C
:104EC000B4F918804FEAE87908FB02F203FB0922E3
:104ED000A8FB0389914461444FEA48424FEA494C98
:104EE000AB7812184CEAD83C4CEB010C6978B4F959
:104EF00016801B0943EA0113297843EA0133C3F5FD
:104F00008013D917CD0745EA5305D80700239A180F
:104F10004FEAC80141EB0C0C40F63543801A65EBB3
:104F20000C05A0FB030103FB051132463B46FBF7D2
:104F300049FFB4F920204D13460B46EAC14602FB57
:104F400005F7D31706FB0377A2FB06233B44554323
:104F500006FB0355A2FB06232B44550E45EAC31559
:104F6000B4F91E202D184FEA636641EB0606D317ED
:104F7000514300FB0311A2FB00230B44D10C41EA77
:104F800043316D184FEAE34046EB0003B4F91C606F
:104F90002A0AF71742EA0362191230013B0143EA79
:104FA0001673801843EB0101FBF7CEFEDFED077AA5
:104FB00007EE100A67EE277AC4ED0F7A94ED0F0A18
:104FC000BDE8F8839FED020AFAE700BF0000803BCE
:104FD000000000002DE9F04F544C2378BFF35B8FA5
:104FE000DB0789B006D4204600F0A1FE10B12046B0
:104FF00000F0A9FE4E484F4DFFF746F94E494F4885
:105000000B22FCF759FA4E48FDF7FCFF4D4E00F01D
:10501000D1FC002800F09C802B6E9847002395F867
:10502000488085F84830EB6D9847B8F1000F00F0E4
:105030008F80002385F824312B6E9847414B686898
:1050400065219946C0B1013916D02A6912B91A7082
:105050000133F7E72A69013A2A61EA680132B2FBB3
:10506000F0F400FB1422EA60EC682A68125D1A7002
:105070000A2AEDD100221A70EB6D984731490023BE
:105080000846DCB2027812F0DF0201F101012CD1F6
:10509000027085F824412C4C4FF0080A4FF0000BA9
:1050A00023680293636803932369CDF818B043B172
:1050B000022204F1080104A8984763690793236951
:1050C000069395F82471039B9F4205D102993A46B5
:1050D000304600F06BFF60B11C4F17F8010BD8B1E0
:1050E000EB6C002BF9D09847F7E70133142BC7D1AD
:1050F000D1E70137069B4F4401970BB900F045FEFD
:1051000004A8079B01A9984704A8FEF730FD08F101
:10511000FF385FFA88F888E704A8FEF728FDBAF19F
:10512000010A04F11804BBD1F1E700BF041200200A
:10513000081200204002002016120020DC1200207D
:10514000B01300209C110020A4020020008E000853
:10515000794C94F8443093B36068217A0368FA225A
:105160001F690323B84742780378DFED746A1201A0
:1051700042EA0332837842EA13116389C3EB1212C5
:105180005B00C3EBD103B4F90C1052435943B4F99B
:105190000E30120B53439B0B03EBD123636303EBE2
:1051A000830380331B0A07EE903AF8EEE77A87EE26
:1051B000A67AD4ED0C7A77EE277AC4ED0E7A5E48A3
:1051C0005F4CFFF7D6FD5C48FFF724FE94F874307F
:1051D00021461BB3583102A8FEF7DCFBB4F964305A
:1051E00094ED1E6A07EE103AB4F9663007EE903A75
:1051F000B4F9623006EE903AB8EEC77AF8EEE77A84
:10520000F8EEE66A27EE067A67EE867A66EE866A3A
:1052100084ED1B7AC4ED1A6AC4ED1C7A94F8283028
:10522000002B5FD0474902A8FEF7B4FBB4F9162063
:1052300094F8293094ED156A06EE902AB4F91820F6
:1052400007EE102AB4F91A20F8EEE66A07EE902A63
:10525000002B5BD0D4ED0B5A76EEE56AB8EEC77A38
:1052600066EE866AF8EEE77AC4ED076AD4ED0C6A5A
:1052700037EE667A27EE067A84ED087A94ED0D7A99
:1052800077EEC77A67EE867A0023C4ED097AD4ED0B
:10529000147AF5EE407AF1EE10FA23D1D4ED077AC4
:1052A00094ED0E7AF0EEE77AF4EEC77AD4ED087A50
:1052B00094ED0F7AF0EEE77AF1EE10FAF4EEC77A99
:1052C000D4ED097A94ED107A48BFE361F0EEE77A05
:1052D000F1EE10FAF4EEC77A48BF2362F1EE10FA4D
:1052E00048BF6362184A1949136801338B421AD8C0
:1052F0001360174B1A780AB100221A70154B1A78EE
:10530000002A3FF484AE00221A707FE6B8EEC77A16
:1053100066EE866A27EE067AF8EEE77AC4ED076A4B
:1053200084ED087AAEE7002313600B4B19895868A7
:10533000FCF70DFEDDE700BF101000200000C842A2
:105340009C100020A810002000120020A086010060
:10535000141200200912002068030020054A136877
:105360000133C82B136004D1034B012119700023B2
:10537000136070470C120020151200200368012BE7
:1053800014D0022B14D01BB902798A4202D0836058
:105390000171704783680133012B8360F8D1427932
:1053A0008A420CBF022341710360F1E702230360CC
:1053B00003798B42ECD000238360F5E737B50446D0
:1053C000006803689B6898470190606803689B6861
:1053D00098470199054604F11000FFF7CFFF2946D1
:1053E00004F11C00FFF7CAFF2369012B0AD1E3690E
:1053F000022B16D1627D94F821309A420ED1E368D7
:1054000001330DE0022B0CD1E369012B09D194F893
:105410002130627D9A42E368F2D100E0E368013B0B
:10542000E36003B030BD000008B5104B83421BD1D0
:105430000F48FFF7C3FF0F48FFF7C0FF0E4A13885E
:1054400001339BB2642B08BF002313800B4A1388DF
:1054500001339BB2B3F57A7F03BF00231380084B5F
:10546000138004BF01221A7008BD00BFB0130020D2
:105470004C11002074110020121200201012002084
:10548000091200200A4B9A6942F001029A619A6956
:1054900082B002F001020092009ADA6942F0805272
:1054A000DA61DB6903F080530193019B02B070471E
:1054B0000010024070B5054688B01422002103A8F0
:1054C00000F090FD2B68B3F1A04F49D103F1704378
:1054D00003F5043300265A69224842F080525A618B
:1054E0005A6902F080520092009A5A6942F40022EE
:1054F0005A615A6902F400220192019A5A6942F4EF
:1055000000325A615B69059603F400330293032469
:10551000029B03A90F23CDE90334FCF753FCDF23DF
:1055200003A94FF09040CDE9033405960E4CFCF7EB
:1055300049FC0E4BA660C4E9003680224FF480730C
:10554000C4E903234FF4806120232046C4E90513F6
:10555000E661FCF787FB08B1FFF70AFCAC63656204
:1055600008B070BD000800482C130020080002405D
:1055700010B5044688B01422002103A800F032FDC3
:105580002268134B9A4221D1124C1348636943F4A9
:1055900080236361636903F480230193019B4FF4CB
:1055A00040721223CDE9032301210323CDE9051322
:1055B000042303A90793FCF705FCE36943F40013F4
:1055C000E361E36903F400130293029B08B010BD8A
:1055D0000054004000100240000400481FB503685A
:1055E0001B4A93420CD11B4B9A6942F400629A61A8
:1055F0009B6903F400630193019B05B05DF804FB14
:10560000B3F1804F15D103F504331C20DA6942F061
:105610000102DA61DB69002203F001030293114603
:10562000029BFCF7C9FA1C2005B05DF804EBFCF7FF
:10563000F5BA094A9342E0D1064B9A6942F48032A6
:105640009A619B6903F480330393039BD5E700BF02
:10565000002C0140001002400040014010B50446FB
:1056600088B01422002103A800F0BCFC23681A4A69
:10567000934219D1194B5A6942F480225A615B69ED
:1056800003F480230193019B42F203010223CDE93D
:1056900003130023CDE9053306231148079303A91B
:1056A000FCF790FB08B010BD0E4A9342FAD10B4BA9
:1056B0005A6942F480225A615B6903F480230293A1
:1056C000029B4FF480420223CDE903230023CDE95E
:1056D00005330123E1E700BF002C01400010024028
:1056E00000040048004001407047FEE7FEE7FEE787
:1056F000FEE770477047704708B5FBF74DFDBDE802
:105700000840FFF72BBE00000148FCF715BB00BFA7
:105710002C1300200148FDF790BC00BFB0130020FF
:105720000120704708B500F0FDFB162303604FF021
:10573000FF3008BD08B500F0F5FB16230360FEE757
:1057400070B50E4614460025A54201DB204670BD0B
:10575000AFF3008070550135F6E770B50E4614467C
:105760000025A54201DB204670BD705DAFF30080CF
:105770000135F6E708B50A4B1968024609B9094927
:1057800019601868694602448A4206D900F0CAFBCB
:105790000C2303604FF0FF3008BD1A60FCE700BF28
:1057A0002C120020001400204FF0FF3070474FF4FF
:1057B00000534B6000207047012070470020704765
:1057C000054BD3F8882042F47002C3F888204FF0CC
:1057D00000629A60704700BF00ED00E0DFF834D04F
:1057E000002103E00C4B5B58435004310B480C4B39
:1057F00042189A42F6D30B4A02E0002342F8043BD7
:10580000094B9A42F9D3FFF7DBFF00F0A3FBFFF748
:105810002DF8FEE700400020B892000800000020AC
:10582000E4010020E401002000140020FEE74368AA
:1058300010B40A461968CC68017A184623465DF808
:10584000044B184730B444681346226815680A466A
:10585000AC46017A204630BC6047F8B50D46174685
:1058600004461E46FFF7E3FF012101FA07F2D2B218
:105870003EB1024329462046D2B2BDE8F840FFF7C8
:10588000E1BF20EA0202F5E70B4606226B21FFF793
:10589000E4BF000070B50D46752104461646FFF7BB
:1058A000C6FF682847D16B212046FFF7C0FF00F0F4
:1058B000F80040F001026B212046FFF7C3FF032EE2
:1058C00005D8DFE806F00217191B1C4BA367E06D33
:1058D0001C21FFF7ACFF00F0E70040EAC602D2B29D
:1058E000E06D1C21FFF7AEFF032D0BD8DFE805F0BC
:1058F000081D1F21124BE9E7124BE7E7124BE5E7C2
:10590000124B63651B212069FFF791FF00F0E70050
:1059100040EAC502D2B220691B21FFF793FF20465F
:105920000021FFF7B1FF012070BD094BE9E7094BEA
:10593000E7E7094BE5E70020F6E700BF68E81F3A14
:1059400068E89F3A68E81F3B2FF99F3B3F1EFA3BF0
:1059500070227A3CDFBFF93CECC0793D82B002ABEB
:1059600003E90300019802B000F0CABA014B1860C5
:10597000704700BF341200200D4B1B6810B51A6928
:105980005C68A2420CD01A6901321A619A6801322D
:10599000B2FBF4F104FB11229A609A6819688854EA
:1059A0000A2802BF93F84820013283F8482010BD2E
:1059B00034120020024B1868003818BF01207047CD
:1059C00034120020014B1860704700BF30120020D5
:1059D000014B1B6818607047301200202DE9F04120
:1059E0000646044646F8041B17460D4614220021BD
:1059F000304604F1180800F0F5FA14220021404660
:105A000000F0F0FAE76204F130074FF40062002181
:105A1000384600F0E7FA04F503634FF48062184655
:105A2000002100F0DFFA0022C4F8302C104A954221
:105A3000034610D10F4A146019464FF48062304675
:105A400000F0FEF84FF400623946404600F0F8F8E6
:105A50002046BDE8F081084A954202D1054A5460CB
:105A6000EAE7064A954204BF024A9460E4E700BFB1
:105A70000038014038120020004400400048004037
:105A800003681A68114319607047000003681A68B8
:105A900022F0010210B51A602D4A9342044639D112
:105AA00002F55842916941F480419161116B21F0F6
:105AB00003011163116B11635A6822F490425A601A
:105AC0009A6822F02A029A60FDF78AF8E36A00EBEE
:105AD0005302B2FBF3F292B2A2F110014FF6EF7350
